:020000040800F2
:200000000020001045BC010839B701083BB701083DB701083FB7010841B7010800000000B5
:2000200000000000000000000000000043B7010845B701080000000047B7010849B70108A8
:2000400017BD01081BBD01081FBD010823BD010827BD01082BBD01082FBD010833BD010848
:2000600037BD01085BB701083BBD01083FBD010843BD010847BD01084BBD01084FBD010826
:2000800053BD010857BD01085BBD01085FBD010863BD010867BD01086BBD01086FBD010828
:2000A00073BD010877BD01087BBD01087FBD01085FB7010899B701089BB7010883BD010828
:2000C00087BD01088BBD01088FBD010893BD010897BD01089FB70108FBB7010857B8010845
:2000E0005DB701089BBD01089FBD0108A3BD0108A7BD0108ABBD0108AFBD0108B3BD0108E8
:20010000B7BD0108BBBD01089DB70108BFBD0108C3BD0108C7BD0108CBBD0108CFBD0108C3
:20012000D3BD0108D7BD0108DBBD0108DFBD0108E3BD0108E7BD0108EBBD0108EFBD010887
:20014000F3BD0108F7BD0108FBBD0108FFBD010803BE010807BE01080BBE0108B3B80108C5
:200160000FBE010813BE010817BE01081BBE01081FBE010823BE010827BE01080000000051
:200180002BBE01082FBE0108FFFFFFFFFFFFFFFFFFFFFFFFFFFFFFFFFFFFFFFFFFFFFFFF8F
:2001A000FFFFFFFFFFFFFFFFFFFFFFFFFFFFFFFFFFFFFFFFFFFFFFFFFFFFFFFFFFFFFFFF5F
:2001C000FFFFFFFFFFFFFFFFFFFFFFFFFFFFFFFFFFFFFFFFFFFFFFFFFFFFFFFFFFFFFFFF3F
:2001E000FFFFFFFFFFFFFFFFFFFFFFFFFFFFFFFFFFFFFFFFFFFFFFFFFFFFFFFFFFFFFFFF1F
:20020000FFFFFFFFFFFFFFFFFFFFFFFFFFFFFFFFFFFFFFFFFFFFFFFFFFFFFFFFFFFFFFFFFE
:020000040800F2
:020000040800F2
:20400000444F574E4C4F414420434F4D504C45544521212114340408F4000101FFFFFFFF26
:20402000FFFFFFFFFFFFFFFFFFFFFFFFFFFFFFFFFFFFFFFFFFFFFFFFFFFFFFFFFFFFFFFFA0
:20404000FFFFFFFFFFFFFFFFFFFFFFFFFFFFFFFFFFFFFFFFFFFFFFFFFFFFFFFFFFFFFFFF80
:20406000FFFFFFFFFFFFFFFFFFFFFFFFFFFFFFFFFFFFFFFFFFFFFFFFFFFFFFFFFFFFFFFF60
:20408000FFFFFFFFFFFFFFFFFFFFFFFFFFFFFFFFFFFFFFFFFFFFFFFFFFFFFFFFFFFFFFFF40
:020000040800F2
:020000040801F1
:2000000081B000F5E0700268914203D343681A44914202D380680028F5D101B07047DFF891
:200020007417086890B94FF4805048604FF480324FF0FF308A60C86008610420DFF8582769
:20004000DFF858374861C2F8BC010B600120704701F1080313F0070F0EBF0023C3F1080312
:2000600003F007031944D21A8161C26042F001034B60091D28238B50DFF818170A69C2616D
:2000800070472DE9FC47044601F1080010F0070F0FBF8A46C0F1080000F0070001EB000AB2
:2000A00002F1080111F0070F06D002F10800C0F1080000F0070002441646A6EB0A000AEB7A
:2000C0000307A0EB030843F00303CAF80430B74228BF01F009FA3079C10758BF01F004FA06
:2000E000B8F1100F38BF01F0FFF9A069864207D1E0684044E060A76140F00100786050E161
:20010000606986420AD1A0688044C4F80880676148F00100786047F8088042E1706800F0D8
:200120000301012940F0AB80C008C0000190C0081F2839D8B568D6F80C9000904E4508BF8C
:2001400001F0D2F9AE4208BF01F0CEF970680099C008C000B0EBC10F18BF01F0C5F90099F1
:2001600004F1280000EBC100854206D022699542C0F08080E968B1427CD1A94506D1009819
:200180002168012282409143216075E0814506D0206981456ED3D9F80800B0426AD1C5F858
:2001A0000C90C9F8085067E0F568D6F81890B5420CD0B0682169884222D3C168B14204BF5D
:2001C000A968B1421CD1C560A8601BE006F11402156835B906F1100215689DB101E01A4679
:2001E000156805F114031968002902BF05F1100318680028F3D121698A4228BF106001D215
:2002000001F072F9B9F1000F36D0F16904F5987000EB81000268964208D10560A5B9F069C5
:200220006168012282409143616025E02069814508D3D9F81000B04214BFC9F81450C9F8C0
:20024000105001E001F050F9B5B121698D4211D3C5F81890306928B1884226BF286185618B
:2002600001F042F9706938B12169884202D36861856101E001F038F9019836188044706832
:2002800040084000706048F0010179604FEAD80547F808801F2D23D804F1280000EBC509F9
:2002A0004E46B8F1100F38BF01F01EF9206820FA05F1C90705D4012101FA05F505432560BE
:2002C00007E0D9F80800216988422CBF064601F00BF9C9F80870F760BE60C7F80C9060E095
:2002E0005FEA182008BF002223D0B0F5803F28BF1F221ED2A0F58071090C01F008018840C8
:20030000A0F58052120C02F004029040A0F580431B0CC1F10E0103F00203891AC91A9840FA
:2003200001EBD031C81D28FA00F202F0010202EB410204F5987101EB8200FA6100217961EC
:200340003961616821FA02F3DB0707D4012303FA02F20A4362600760B8611DE001681F2A1A
:200360001DBF5208C2F1190208FA02F2424600E001464868C008C000404516D001F110032C
:20038000D50F03EB8503520018680028F0D12069834204D31F60B961FF60BF6001E001F03A
:2003A000A3F80AF10800BDE8F68722698868914228BF9042F3D3C7608F60B860F960002009
:2003C000B861EEE72DE9F04F054683B0AE698A463746934698463946FFF712FE01684068AB
:2003E000CDF800B001EB0009A9F1270111F007000EBF0021C1F1080101F00701009ACDF8C8
:2004000004A009EB01000199A0F12F0407F110008442284638BF3C46283AFFF719FE04F1CC
:20042000080004F1180A4FF0000B10F0070F18BF01F05AF81B20606004F1080105F5E070E0
:2004400090E80C5081E80C500199016000994160C0F80C8004F10801816001E00AF1040AC1
:200460000720CAF804000BF1010B0AF108004845F4D3BBF1010FD8BF01F036F8BC4200F0D0
:200480009580E41B381D391D005940084000085144F0010179604FEAD4083C51B8F11F0FDB
:2004A00021D805EBC80000F12806B146102C38BF01F01AF8286820FA08F1C90705D40121D1
:2004C00001FA08F10843286006E0B068296988422CBF814601F008F8B760C9F80C70C7F845
:2004E0000890FE606FE0200A08BF002123D0B0F5803F28BF1F211ED2A0F58072120C02F0A0
:2005000008029040A0F58051090C01F004018840A0F580431B0CC2F10E0203F00203521A22
:20052000D21A984002EBD032D01D24FA00F101F0010101EB420105EB8102002302F5987055
:20054000F9617B613B616A6822FA01F3DB0707D4012303FA01F1114369600760B8611DE07D
:2005600002681F291DBF4908C1F1190104FA01F1214600E002465068C008C000A04216D049
:2005800002F11003C80F03EB8003490018680028F0D12869834204D31F60BA61FF60BE6017
:2005A00011E003B0BDE8F04F00F09EBF0BE0296990688A4228BF8842F3D3C7609660B86079
:2005C000FA600020B86103B0BDE8F08F2DE9F041704F05463868884608B9FFF720FDB968FD
:2005E00001EB08002F30491E20EA010188457BD205F5D876B06828B1326889188A4273D296
:20060000884271D300F082FF01001CBF0C6811F1010F69D03068201830607268824238BFCB
:2006200002467260A86960BB286908B1814200D22961316174610020F06105F12802386873
:2006400068624FF0FF3028620020D260926002F1080353611361801C10322028F5D34E48EA
:20066000854208BFA4F1280228D055F8040CC00805EBC002A2F108000A19121A283A0146CB
:200680001CE005F5E070024600E092687AB3136857683B449942F8D1137B1F0727D4AB69A5
:2006A0001768BB4223D3D2F804C06744BB421ED2A444C2F804C0E868A96922182846FFF73C
:2006C000C7FC1FE08068C0B103689342FAD1027B130712D4026801604368E41844604346D8
:2006E0002846BDE8F041CCE40020BDE8F0812A69914238BF29610A19E5E700232246284601
:20070000FFF760FEE8688045EED2A0EB0800A969E86001EB0802AA6140F00100506048F0A9
:200720000300486001F10800BDE8F08138B4194B1A6882B94FF480525A604FF480344FF0EC
:20074000FF329C60DA601A610422134C134D5A61C4F8BC211D6011F1400F17D28269AAB181
:20076000C368283199420BD200F5E0710C68A24203D34D682C44A24202D389680029F5D10B
:20078000C16999423CBF4FF0FF31C16132BC002070470000D4860020348100206859883C2F
:2007A0002DE9F84F00248846090AC8F1000908BF002323D0B1F5803F28BF1F231ED2A1F524
:2007C0008072120C02F008029140A1F580531B0C03F004039940A1F58046360CC2F10E0278
:2007E00006F00206D21A921BB14002EBD132D11D28FA01F303F0010303EB4203064606F50C
:20080000987B5BF8230040B31F2B0FBFC4464FEA530CCCF1190C08FA0CFCA646494601E05A
:200820004FEA4C0C4268D208D200A2EB08028A4203D21100044600F06B81426910304FEA3E
:20084000DC7950F82900002A1CBF824296460028E6D189467046B0BBBCBB012000FA03F3D6
:200860005B00584203437068034000F05081584203405B1E180B00F01000C340590901F092
:200880000801CB409A0802F00402D3405D0805F002050818EB401018C3F3400728443844DE
:2008A000FB401B185BF823000DE008464168C908C900A1EB080149453CBF89460446016935
:2008C0000029F2D140690028F0D1002C00F01F81B068A0EB0800814580F019813069844204
:2008E000C0F0138108EB0900009008EB09016068C008C000884218BF00F0F6FD04EB080759
:20090000BC4280F00281E568D4F818A0A5420CD0A0683169884222D3C168A14204BFA96811
:20092000A1421CD1C560A8601BE004F11402156835B904F1100215689DB101E01A461568B9
:2009400005F114031968002902BF05F1100318680028F3D131698A4228BF106001D200F02A
:20096000C3FDBAF1000F35D0E1690BEB81000268944208D10560A5B9E06971680122824054
:200980009143716026E03069824508D3DAF81000A04214BFCAF81450CAF8105001E000F0C1
:2009A000A3FDBDB13069854212D3C5F818A0206930B13169884226BF2861856100F094FDCC
:2009C000606938B13169884202D36861856101E000F08AFDB9F1100F0AD2009840F00300B5
:2009E0006060211D00980A5842F001020A5088E048F00300606049F0010078604FEAD900E9
:200A000047F809901F281DD806EBC00101F12805316821FA00F2D207A84605D4012202FA8C
:200A200000F00843306006E0A868316988422CBF804600F059FDAF60C8F80C70C7F8088008
:200A4000FD605EE05FEA192008BF002223D0B0F5803F28BF1F221ED2A0F58071090C01F095
:200A600008018840A0F58052120C02F004029040A0F580431B0CC1F10E0103F00203891A7D
:200A8000C91A984001EBD031C81D29FA00F202F0010202EB4102FA610021796139610BEBA9
:200AA0008200716821FA02F3DB0707D4012303FA02F20A4372600760B8611DE001681F2AAB
:200AC0001DBF5208C2F1190209FA02F24A4600E001464868C008C00048451BD001F11003AF
:200AE000D00F03EB8003520018680028F0D13069834204D31F60B961FF60BF6001E000F0CE
:200B0000F3FC04F10800BDE8F28F00F0EDFC10E18946A0E632698868914228BF9042EED3CC
:200B2000C7608F60B860F9600020B861E9E72DE9F84F06468846716848420140491E080B90
:200B400000F01000C1404A0902F00802D1408B0803F00403D9404D0805F002051018E940EC
:200B60001818C1F34004281806F5987A2044E14009185AF821104868C008C0000D46A0EBC1
:200B8000080909E001464868C008C000A0EB080048453CBF81460D4608690028F2D1496999
:200BA0000029F0D130698542C0F0C1806868C00808EB090BC000584518BF00F095FC05EBB6
:200BC00008008542009080F0B280EF68AC69AF420CD0A8683169884222D3C168A94204BF9B
:200BE000B968A9421CD1C760B8601BE005F11402176837B905F1100217689FB101E01A462F
:200C0000176807F114031968002902BF07F1100318680028F3D131698A4228BF106001D2D4
:200C200000F062FC002C31D0E9690AEB81000268954208D107608FB9E86971680122824099
:200C40009143716022E03069844205D32069A84214BF6761276101E000F046FCB7B130690C
:200C6000874211D3BC61286930B13169884226BF3861876100F038FC686938B1316988422C
:200C800002D37861876101E000F02EFCB9F1100F0BD24BF003006860291D281D50F80B0039
:200CA00040F0010041F80B003DE048F00301696049F00100291D41F80800009840F8099073
:200CC000D6F808804FEAD80BBBF1200F28BF00F00BFCB8F1000F22D006EBCB00776900F1B2
:200CE0002804A246B8F1100F38BF00F0FDFB306820FA0BF1C90705D4012101FA0BF108437E
:200D0000306006E0A068316988422CBF824600F0EBFBA760CAF80C70C7F808A0FC60C6F8A2
:200D200008900098706105F10800BDE8F28F00F0DBFB0020BDE8F28F2DE9F04F83B00546AF
:200D4000AFF30080F52DDFF89C6780F004810B2D31BF10250B35ED08ED003068EC08E04055
:200D600010F0030F46D0C04300F00100041906F1280000EBC408E700D8F808506868C008BD
:200D8000C000B84218BF00F0AFFBD5F80890454508BF00F0A9FB4D4508BF00F0A5FB686825
:200DA000C008C000B84218BF00F09EFBC84507D13168012000FA04F421EA040434600DE02C
:200DC0003069814508D3D9F80C00A84204D1C8F80890C9F80C8001E000F086FB47F003000C
:200DE0006860291D281D05F10804C05940F00100C851F8E0B168A94280F0BE80002800F099
:200E0000A1804FF0010808FA04F1490000FA04F4484201430C4060420440641E200B00F09A
:200E20001000C440610901F00801CC40A20802F00402D440630803F002030818DC401018B1
:200E4000C4F3400718183818FC40241806F1280000EBC40AE700DAF80890D9F80400C008D6
:200E6000C000B84218BF00F03FFBD9F808B0D14508BF00F039FBD94508BF00F035FBD9F857
:200E80000400C008C000B84218BF00F02DFBDA4506D1316808FA04F421EA040434600DE0C0
:200EA0003069834508D3DBF80C00484504D1CAF808B0CBF80CA001E000F016FB45F00300B2
:200EC000C9F804007F1B09F1040147F00100485109EB05000190C751B4684FEAD40ABAF163
:200EE000200F28BF00F000FB34B3CDF800A006F12800756900EBCA0AD346102C38BF00F0AD
:200F0000F3FA3168009821FA00F2D30704D408FA00F00843306007E0DAF808003169884202
:200F20002CBF834600F0E0FACAF80850CBF80C50C5F808B0C5F80CA0B76009F10804019866
:200F4000706150E07068C0B329463046FFF7EFFD040011D047E015F1400F28BF4FF0FF35C3
:200F60000AD20B35ED087068ED0028B129463046FFF716FC040036D1B068A8421DD3411B7C
:200F8000726910290AD350197061B16041F001034360415045F0030555600BE00021B1609D
:200FA0007161131D40F003015160111D095841F00101195002F1080415E0F06885420DD22D
:200FC000401BB169F0604A19B26140F00100506045F003054D6001F1080404E02946304644
:200FE000FFF7F4FA0446AFF300802046FFF7EBBA002800D170472DE9F04782B0A0F10805D3
:20100000AFF30080DFF8DC6432699542C0F05682686800F00301012900F05082C1084FEAEB
:20102000C109C10705EB090839D42C6810F0030F00F04682604205449542A144C0F03E829B
:201040007069854200F0C780E408202C5ED2D5F80CA0AF68554508BF00F046FABD4208BF6A
:2010600000F042FA6868C008C000B0EBC40F18BF00F03AFA06F1280000EBC400874205D017
:2010800031698F423FD3F968A9423CD1BA452CD13068012101FA04F420EA040434604545A1
:2010A00080F00C82D8F80410C80740F10782880700F16581B069804540F0A080F068B561C3
:2010C0008144C6F80C9049F0010068607069854202D100207061B060F069484580F0F081B4
:2010E00000213046FFF722FBEAE1824506D03069824508D3DAF80800A84204D1C7F80CA09F
:20110000CAF80870CBE700F0EFF9C8E7EC68AF69AC420BD0A868904223D3C168A94204BF78
:20112000A168A9421DD1C460A0601CE005F114031C6834B905F110031C68A4B101E06346C3
:201140001C6804F1140CDCF80010002902BF04F1100CDCF800000028F1D1934228BF196024
:2011600001D200F0C1F9002F99D0E96906F5987000EB81000268954209D10460200011D118
:20118000E8697168012282409143716087E73069874205D33869A84214BF7C613C6101E03A
:2011A00000F0A2F9002C3FF47AAF31698C42AAD3A761286928B1884226BF2061846100F0C0
:2011C00093F9686900283FF46AAF316988429AD36061846163E798F8040000F003000328CB
:2011E0007FF45DAFC6F8089049F00101D8F8040040084000C8F8040069600AE0706980456E
:201200000AD1B06875618144C6F8089049F00100686045F8099053E1C808C0004FEAD00A3B
:20122000BAF1200F814435D2D8F80C70D8F80840B84508BF00F058F9A04508BF00F054F9B6
:20124000D8F80400C008C000B0EBCA0F18BF00F04BF906F1280000EBCA00844206D03169A9
:201260008C42C0F07F80E16841457BD1A74206D13068012101FA0AF18843306074E08742EE
:2012800005D0306987426DD3B86840456AD1E760BC6069E0D8F80C40D8F8187044450DD071
:2012A000D8F808003169884222D3C168414504BFA16841451CD1C460A0601BE008F11402E1
:2012C000146834B908F1100214689CB101E01A46146804F114031968002902BF04F1100395
:2012E00018680028F3D131698A4228BF106001D200F0FAF8002F37D0D8F81C1006F59870DB
:2013000000EB8100026890450AD10460200012D1D8F81C007168012282409143716023E08E
:201320003069874205D33869404514BF7C613C6101E000F0D9F8BCB131698C4212D3A7619C
:20134000D8F8100028B1884226BF2061846100F0CBF8D8F8140038B13169884202D3606145
:20136000846101E000F0C0F849F00100686045F80990706985420BD1C6F80890A0E0480885
:201380004000C8F8040049F00100686045F809904FEAD907202F22D206F1280000EBC70440
:2013A000A046B9F1100F38BF00F09EF8306820FA07F1C90705D4012101FA07F707433760B2
:2013C00006E0A068316988422CBF804600F08CF8A560C8F80C50C5F80880EC6070E05FEA4B
:2013E000192008BF002223D0B0F5803F28BF1F221ED2A0F58071090C01F008018840A0F56A
:201400008052120C02F004029040A0F580431B0CC1F10E0103F00203891AC91A984001EB92
:20142000D031C81D29FA00F202F0010202EB410206F5987101EB8200002169612961EA615A
:20144000716821FA02F3DB0707D4012303FA02F20A4372600560A8611DE001681F2A1DBFB9
:201460005208C2F1190209FA02F24A4600E001464868C008C000484526D001F11003D40FF3
:2014800003EB8403520018680028F0D13069834204D31D60A961ED60AD6001E000F024F819
:2014A000306A401E30620BD1D6F8C80100E080680028FCD14FF0FF30306201E000F014F895
:2014C000AFF30080BDE8F38732698868914228BF9042E3D3C5608D60A860E9600020A86172
:2014E000DEE7000034810020012000F025B803681AB95A1E026008467047197811B94FF0AD
:20150000FF3070475A1C0260187870470749086808B1002070470648C008C00008600549EA
:20152000C908C900091A0160704700BF288700204F87002048A7002080B5AFF30080024AA0
:2015400011001820ABBEFBE72600020070B50400002C01D10120D9E094F83D00002805D107
:20156000002084F83C00200000F04DFF242084F83D0020680068400840002168086001F0E0
:20158000F5F901006068DFF83423904208D2DFF83003814201D2012000E00020C0B207E0A0
:2015A000DFF82003814201D2012000E00020C0B2012801D10120A9E0DFF80C03B1FBF0F2EF
:2015C00020684068800980011043236858602068006A6368DFF8E452AB4201D2531C08E05A
:2015E0004FF4967303FB02F34FF47A75B3FBF5F35B1C800980011843236818622068C3694F
:201600006068DFF8B852A84214D2481E65686D00B0FBF5F0401C0005000D042801D204258B
:201620003EE0481E65686D00B0FBF5F56D1C2D052D0D35E0A068002809D14D1E66680320E7
:201640004643B5FBF6F0401C0005000D0AE04D1E666819204643B5FBF6F0401C0005000D14
:2016600050F48040000501D1012519E0A068002809D14D1E666803204643B5FBF6F56D1C5D
:201680002D052D0D0AE04D1E666819204643B5FBF6F56D1C2D052D0D55F4804555F40045CD
:2016A000DFF8280203402B432068C3612068036833F0C003E0690343206A034320680360A9
:2016C00020688368DFF80802034020690343E0680343206883602068C3681B0A1B02A569A8
:2016E000606905432B432068C3602068006850F001002368186000202064202084F83D00EF
:2017000000202063002084F83E00002070BD10B50400002C01D1012019E0242084F83D0021
:20172000206800684008400021680860200000F0E2FE00202064002084F83D000020206330
:20174000002084F83E00002084F83C00002010BD2DE9F84304000D0016001F00DDF82080DE
:2017600001F070F9814694F83D00202840F0A280CDF8009019230122DFF85811200000F0E1
:20178000CFFC002801D0022095E094F83C00012801D102208FE0012084F83C0020680068D1
:2017A000C00705D42068006850F00100216808602068006830F4006021680860212084F845
:2017C0003D00102084F83E000020206466626785608D2085DFF80001E0624B46424629009C
:2017E00089B2200000F024FB002801D0012062E000200090206840690090206880690090B1
:201800000098208D002844D04A464146200000F028FD00280AD0206C042805D1206800687B
:2018200050F4007021680860012044E0606A007821680861606A401C6062608D401E608572
:20184000208D401E20852068406940070FD5208D00280CD0606A007821680861606A401C71
:201860006062608D401E6085208D401E20854A464146200000F021FD0028C2D0206C04280F
:2018800005D12068006850F4007021680860012011E02068006850F40070216808602020F6
:2018A00084F83D00002084F83E00002084F83C00002000E00220BDE8F2830000A186010059
:2018C00080841E0000093D0040420F000030FFFF007CFFFF020010000000FFFF2DE9F04F02
:2018E00083B005000E0017009846DDF830900D9CDDF838A001F0A6F8834695F83D00202858
:2019000040F0A180CDF800B019230122DFF81815280000F005FC002801D0022094E095F869
:201920003C00012801D102208EE0012085F83C0028680068C00705D42868006850F0010035
:20194000296808602868006830F4006029680860212085F83D00402085F83E000020286457
:20196000C5F824906C85688D2885DFF8B804E862CDF804B0CDF800A043469BB23A0092B254
:20198000310089B2280000F0B3FA002801D001205AE0288D002833D05A465146280000F093
:2019A00060FC00280AD0286C042805D12868006850F4007029680860012045E0686A0078FE
:2019C00029680861686A401C6862288D401E2885688D401E6885286840694007D9D5288D32
:2019E0000028D6D0686A007829680861686A401C6862288D401E2885688D401E6885C8E72E
:201A00005A465146280000F058FC00280AD0286C042805D12868006850F4007029680860E6
:201A2000012011E02868006850F4007029680860202085F83D00002085F83E00002085F87D
:201A40003C00002000E00220BDE8FE8F2DE9F04F83B083460D0016001F00DDF830800D9C35
:201A6000DDF8389000F0EEFF82469BF83D00202840F0D481CDF800A019230122DFF8A81331
:201A8000584600F04DFB002801D00220C7E19BF83C00012801D10220C1E101208BF83C003F
:201AA000DBF800000068C00707D4DBF80000006850F00100DBF800100860DBF80000006847
:201AC00030F40060DBF80010086022208BF83D0040208BF83E000020CBF84000CBF824808A
:201AE000ABF82A40BBF82A00ABF82800DFF83403CBF82C00CDF804A0CDF800903B009BB2EE
:201B0000320092B2290089B2584600F05EFA002801D0012083E1BBF82800002813D1002080
:201B20000090DBF8000040690090DBF80000806900900098DBF80000006850F40070DBF863
:201B4000001008604AE0BBF8280001281BD1DBF80000006830F48060DBF800100860002049
:201B60000090DBF8000040690090DBF80000806900900098DBF80000006850F40070DBF823
:201B8000001008602AE0BBF8280002281BD1DBF80000006830F48060DBF800100860DBF875
:201BA0000000006850F40060DBF80010086000200090DBF8000040690090DBF80000806956
:201BC000009000980AE000200090DBF8000040690090DBF80000806900900098BBF8280078
:201BE000002800F01081BBF82800042880F0D180BBF8280001281ED152464946584600F0CC
:201C000088FB002801D0012009E1DBF800000069DBF824100870DBF82400401CCBF8240048
:201C2000BBF82800401EABF82800BBF82A00401EABF82A00D2E7BBF8280002283FD1CDF805
:201C400000A04B460022DFF8E411584600F068FA002801D00120E2E0DBF80000006850F41A
:201C60000070DBF800100860DBF800000069DBF824100870DBF82400401CCBF82400BBF801
:201C80002800401EABF82800BBF82A00401EABF82A00DBF800000069DBF824100870DBF85D
:201CA0002400401CCBF82400BBF82800401EABF82800BBF82A00401EABF82A008EE7CDF877
:201CC00000A04B460022DFF86411584600F028FA002801D00120A2E0DBF80000006830F4BA
:201CE0008060DBF800100860DBF800000069DBF824100870DBF82400401CCBF82400BBF811
:201D00002800401EABF82800BBF82A00401EABF82A00CDF800A04B460022DFF810115846BC
:201D200000F0FEF9002801D0012078E0DBF80000006850F40070DBF800100860DBF800003D
:201D40000069DBF824100870DBF82400401CCBF82400BBF82800401EABF82800BBF82A0080
:201D6000401EABF82A00DBF800000069DBF824100870DBF82400401CCBF82400BBF8280068
:201D8000401EABF82800BBF82A00401EABF82A0024E752464946584600F0BBFA002801D0A4
:201DA00001203CE0DBF800000069DBF824100870DBF82400401CCBF82400BBF82800401EB8
:201DC000ABF82800BBF82A00401EABF82A00DBF80000406940077FF501AFDBF8000000690D
:201DE000DBF824100870DBF82400401CCBF82400BBF82800401EABF82800BBF82A00401EEB
:201E0000ABF82A00EAE620208BF83D0000208BF83E0000208BF83C00002000E00220BDE89E
:201E2000FE8F00000000FFFF02001000040001002DE9F04182B004000D0016001F00D4F875
:201E40002C80B8F1080F05D0B8F1010F02D02748804506D12068006850F480702168086096
:201E600008E0206B122805D12068006850F48070216808600097330000225FF0011120005D
:201E800000F04EF9002801D001202CE02069B0F5804F04D115F0FE002168086117E015F41E
:201EA000407080B2C00950F0F000C0B2216808613B003200DFF86012200000F075F9002887
:201EC00001D001200FE02800C0B2216808613B003200DFF84812200000F066F9002801D08F
:201EE000012000E00020BDE8F68100000000FFFF2DE9F84304000D0016001F00DDF820809B
:201F0000DDF824902068006850F4807021680860CDF80090434600225FF00111200000F0B2
:201F2000FFF8002801D001204DE015F0FE00216808614B4642467949200000F035F900282D
:201F400001D001203FE00020009020684069009020688069009000984A464146200000F03F
:201F600080F900280AD0206C042805D12068006850F4007021680860012024E0BFB2012FFD
:201F800004D13000C0B2216808611BE0300080B2000AC0B2216808614A464146200000F0E6
:201FA00060F900280AD0206C042805D12068006850F4007021680860012004E03000C0B2FC
:201FC000216808610020BDE8F2832DE9F84304000D0016001F00DDF82080DDF824902068B8
:201FE000006850F48060216808602068006850F4807021680860CDF80090434600225FF000
:020000040801F1
:202000000111200000F08CF8002801D0012081E015F0FE00216808614B4642463F492000E9
:2020200000F0C2F8002801D0012073E00020009020684069009020688069009000984A46EF
:202040004146200000F00DF900280AD0206C042805D12068006850F400702168086001209D
:2020600058E0BFB2012F04D13000C0B2216808611BE0300080B2000AC0B2216808614A46C3
:202080004146200000F0EDF800280AD0206C042805D12068006850F400702168086001207E
:2020A00038E03000C0B2216808614A464146200000F0D7F800280AD0206C042805D1206866
:2020C000006850F4007021680860012022E02068006850F4807021680860CDF800904346DD
:2020E00000225FF00111200000F01AF8002801D001200FE055F00100C0B2216808614B46F7
:2021000042460649200000F04FF8002801D0012000E00020BDE8F283080001000200010051
:202120002DE9F04105000E0017001C00DDF818803000000CC0B201280AD12868406930404A
:2021400080B2B1B2884201D101200BE0002009E028688069304080B2B1B2884201D10120FE
:2021600000E00020FFB2B8421BD114F1010FDFD000F068FCB0EB0800844201D3002CD7D19F
:2021800000202863202085F83D00002085F83E00286C50F020002864002085F83C00012045
:2021A00000E00020BDE8F081F8B505000E0014001F003000000CC0B201280AD1286840692B
:2021C000304080B2B1B2884201D101200BE0002009E028688069304080B2B1B2884201D12F
:2021E000012000E00020002839D12868406940051AD52868006850F40070296808607FF407
:2022000080602968486100202863202085F83D00002085F83E00286C50F0040028640020A0
:2022200085F83C0001201BE014F1010FC1D000F009FCC01B844201D3002CBAD10020286357
:20224000202085F83D00002085F83E00286C50F020002864002085F83C00012000E000202F
:20226000F2BD70B505000C00160028684069000621D4280000F086F8002801D001201BE084
:2022800014F1010FF1D000F0DDFB801B844201D3002CEAD100202863202085F83D000020BF
:2022A00085F83E00286C50F020002864002085F83C00012000E0002070BD70B505000C0086
:2022C000160028684069400721D4280000F05AF8002801D001201BE014F1010FF1D000F02E
:2022E000B1FB801B844201D3002CEAD100202863202085F83D00002085F83E00286C50F0C2
:2023000020002864002085F83C00012000E0002070BD70B505000C0016002868406940061F
:202320002ED428684069C00612D57FF010002968486100202863202085F83D00002085F8BA
:202340003E00286C2864002085F83C00012018E000F078FB801B844201D3002CDDD100209B
:202360002863202085F83D00002085F83E00286C50F020002864002085F83C00012000E0A3
:20238000002070BD010008684069400514D57FF480600A68506100200863202081F83D00B1
:2023A000002081F83E00086C50F004000864002081F83C00012000E00020704781B0002024
:2023C0000090DFF81804006850F48040DFF80C140860DFF80804006810F480400090009878
:2023E00000200090DFF8F803006850F08050DFF8F0130860DFF8E803006810F08050009017
:20240000009801B0704710B586B0040001A8142100F01EFB2068DFF8CC13884232D10020AB
:202420000090DFF8C403006850F00200DFF8B8130860DFF8B403006810F00200009000989A
:202440004FF4407001901220029001200390032004900420059001A9DFF8900300F008FB09
:2024600000200090DFF87803006850F40010DFF870130860DFF86803006810F4001000908E
:20248000009836E02068DFF86813884231D100200090DFF85403006850F00200DFF848132E
:2024A0000860DFF84403006810F00200009000984FF44060019012200290012003900320F5
:2024C00004900420059001A9DFF8200300F0D0FA00200090DFF80803006850F48000DFF8BC
:2024E00000130860DFF8F802006810F480000090009806B010BD10B504002068DFF8E412DB
:2025000088420ED1DFF8D802006830F40010DFF8D01208604FF44071DFF8D00200F0B7FB65
:2025200012E02068DFF8C81288420DD1DFF8B002006830F48000DFF8A81208604FF4406156
:20254000DFF8A80200F0A3FB10BD0168DFF8A422914203D10121DFF8A0221160704710B54A
:2025600082B004002068B0F1804F18D100200090DFF86C02006850F00100DFF864120860F1
:20258000DFF85C02006810F0010000900098002202211C2000F0F4FC1C2000F006FD13BD15
:2025A00010B586B004006846142100F051FA20689249884233D1002005908848006850F0A0
:2025C0001000864908608548006810F0100005900598002005908448006850F00100824948
:2025E00008608148006810F00100059005984FF4C060009002200190012002900320039000
:202600000720049069467E4800F032FA00220621252000F0B5FC252000F0C7FCDCE0206803
:202620007849884232D1002005906D48006850F400306B4908606A48006810F400300590C7
:202640000598002005906848006850F00800664908606548006810F00800059005986020E2
:202660000090022001900120029003200390072004906946644800F0FBF900220721262024
:2026800000F07EFC262000F090FCA5E020685F49884233D1002005905148006850F48020F1
:2026A0004F4908604E48006810F4802005900598002005904C48006850F008004A49086052
:2026C0004948006810F00800059005984FF440700090022001900120029003200390072001
:2026E00004906946484800F0C3F900220821272000F046FC272000F058FC6DE020684449AA
:20270000884232D1002005903548006850F40020334908603248006810F4002005900598D2
:20272000002005903048006850F001002E4908602D48006810F00100059005980320009021
:202740000220019001200290032003900820049069462B4800F08CF900220921342000F07A
:202760000FFC342000F028FC36E020682949884232D1002005901948006850F020001749CB
:2027800008601648006810F0200005900598002005901548006850F04000134908601248A1
:2027A000006810F04000059005984FF48440009002200190012002900320039008200490D0
:2027C0006946154800F054F900220A21472000F0D7FB472000F0E9FB06B010BD44380240BE
:2027E0004038024000540040303802400004024000580040002800403C0E47420010014077
:202800000000024000440040000C024000480040004C0040001401400018024070B50400B8
:202820000D00002C01D101209CE05B48006810F00F00A84209D2584805705748006810F0F5
:202840000F00A84201D001208CE02078800719D52078400705D55148006850F4E0504F494E
:2028600008602078000705D54C48006850F460404A4908604948016831F0F001A068014344
:20288000464801602078C00736D56068012805D143480068800313D4012063E06068022865
:2028A00002D06068032805D13D480068800107D4012057E03A480068800701D4012051E044
:2028C0003648016889088900606801433348016000F0B8F806003148006810F00C006168B3
:2028E000B0EB810F08D000F0ADF8801B41F289318842F0D3032035E02748006810F00F000D
:20290000854209D2244805702348006810F00F00A84201D0012025E02078400707D51F484F
:20292000016831F4E051E06801431C4801602078000708D51948006830F46040216950EABA
:20294000C1001649086000F033F81649134A1268C2F30312895CC84013490860012000F012
:202960004BFB002070BD10480068704780B5FFF7FAFF0E49094A1268C2F38222895CC840BF
:2029800002BD80B5FFF7EFFF0849044A1268C2F34232895CC84002BD003C02400838024071
:2029A0000038024034BC010890100020E8BC0108F0B500240025002600271E48006810F02E
:2029C0000C00002804D0042804D0082804D02FE019482EE019482CE01948006810F03F00F8
:2029E00004001748006840020CD515480068C0F388101249A1FB00012200002300F022FB8F
:202A000005000BE00E480068C0F388100A49A1FB00012200002300F015FB050008480068CB
:202A2000C0F30140401C40000600B5FBF6F000E00148F0BD083802400024F40000127A006E
:202A40000438024001480068704700BF08870020002200F073BB8268521C8260426832B11B
:202A60000268531C036011704168491E41607047F8B40023002400260025102D80F00581C0
:202A80000122AA4013000A681A4014009C4240F0FA804A68022A02D04A68122A1ED12A00F7
:202AA000D20800EB8202176A5FF00F0C15F00702D2B292001CFA02FC37EA0C07D1F810C0DD
:202AC00015F00702D2B292001CFA02FC5CEA07073E002A00D20800EB8202166207685FF083
:202AE000030C2A00D2B252001CFA02FC37EA0C0791F804C01CF0030C2A00D2B252001CFA01
:202B000002FC5CEA070707604A68012A08D04A68022A05D04A68112A02D04A68122A24D1F2
:202B200086685FF0030C2A00D2B252001CFA02FC36EA0C06D1F80CC02A00D2B252001CFA58
:202B400002FC5CEA0606866042685FF0010C1CFA05FC32EA0C02D1F804C0CCF3001C1CFA7A
:202B600005FC5CEA020217004760C2685FF0030C2E00F6B276001CFA06F632EA0606D1F875
:202B800008C02A00D2B252001CFA02FC5CEA0606C6604A68D20076D500220092DFF89422D1
:202BA000126852F48042A34F3A60A24A126812F480420092009AA04A2F00BF0852F82770EC
:202BC0005FF00F0C15F00302D2B292001CFA02FC37EA0C07994A904201D1002623E0984A91
:202BE000904201D101261EE0964A904201D1022619E0954A904201D1032614E0934A904218
:202C000001D104260FE0924A904201D105260AE0904A904201D1062605E08F4A904201D128
:202C2000072600E00826F6B215F00302D2B2920096403743804A2E00B60842F82670874AEA
:202C40001268A2434E68F60300D52243834E3260834E3668A6434F68BF0300D52643804AF0
:202C60001660804A1268A2434F68FF0200D522437C4E32607C4E3668A6434F68BF0200D5C9
:202C80002643794A16606D1CF7E6F1BC7047F0B50023002400250026102E80F0AF80012291
:202CA000B240130013EA010214009C4240F0A480614A3700BF0852F827705FF00F0C16F0CF
:202CC0000302D2B292001CFA02FC1CEA07073D005A4A904201D1002723E0594A904201D1BB
:202CE00001271EE0574A904201D1022719E0564A904201D1032714E0544A904201D1042778
:202D00000FE0534A904201D105270AE0514A904201D1062705E0504A904201D1072700E0D0
:202D20000827FFB216F00302D2B292009740BD4226D10F2716F00302D2B2920097403D005A
:202D40003D4A3700BF0852F82720AA433A4FB4465FEA9C0C47F82C20404A1268A2433F4FFA
:202D60003A603F4A1268A2433D4F3A603D4A1268A2433C4F3A603C4A1268A2433A4F3A6098
:202D800007685FF0030C3200D2B252001CFA02FC37EA0C0707603200D20800EB82073200FD
:202DA000D20800EB8202D2F820C05FF00F0E16F00702D2B292001EFA02FE3CEA0E0CC7F878
:202DC00020C087685FF0030C3200D2B252001CFA02FC37EA0C07876042680127B740BA43C9
:202DE0004260C7685FF0030C3200D2B252001CFA02FC37EA0C07C760761C4DE7F0BD0200B8
:202E0000106989B2084201D0012000E00020C0B27047406980B27047D2B2002A02D089B24C
:202E2000816102E089B20B048361704789B2416170470000443802400838014000000240D4
:202E40000004024000080240000C0240001002400014024000180240001C0240003C0140B7
:202E6000043C0140083C01400C3C014010F00703DFF860110A684FF6FF010A40DFF8581130
:202E800051EA03210A43DFF84C110A607047DFF844010068C0F30220704740B200280AD429
:202EA000012210F01F018A40DFF8301140B203005B0941F82320704740B200280DD4012243
:202EC00010F01F018A40464940B203005B0941F82320BFF34F8FBFF36F8F704710B440B2F7
:202EE000002804D40A013F4B40B21A5407E00A013D4B40B210F00F04234403F8042C10BC00
:202F0000704770B4030013F00704D4F10700052801D3042001E0D4F10700251D072D01D2DE
:202F2000002500E0E51E012616FA00F0401E0140A940012010FA05F56D1E2A401143080064
:202F400070BC704710B50400601EB0F1807F01D301200EE0601E254908600F215FF0FF30C2
:202F6000FFF7BCFF002022490860072021490860002010BD10B504002000FFF777FF10BDA5
:202F80002DE9F04104000D0016000027FFF77FFF8046320029004046FFF7B3FF01002000B8
:202FA00040B2FFF79BFFBDE8F08110B50400200040B2FFF772FF10BD10B50400200040B28F
:202FC000FFF77AFF10BD10B504002000FFF7BAFF10BD00000CED00E00000FA0500E100E0B7
:202FE00080E100E000E400E018ED00E014E000E018E000E010E000E010B504004FF47A7075
:203000000D490978B0FBF1F00C490968B1FBF0F0FFF7D9FF002801D001200CE0102C09D210
:20302000002221005FF0FF30FFF7AAFF04480460002000E0012010BD94100020901000200E
:203040008C1000201B4213D1094236D12AB18446B0FBF2F002FB10C2704700F089B8FCD369
:203060000022002370470B000200002100207047904271EB030CF6D370B5B1FA81F4B3FA57
:2030800083F52C1BA340C4F1200532FA05F63343A2405FF00046E64002E05B085FEA3202B8
:2030A000841A71EB030524BF204629467641F4D302000B003000002170BD012ACFD970B555
:2030C000140C20D0B1FA81F4B2FA82F5C4F120046419B4F12006D6D3B2405FF00044F4401A
:2030E000002502E052085FEA3303C61A71EB020E24BF3046714664416D41F3D302000B006E
:203100002000290070BD0C46B1FBF2F102FB11452D0445EA1045B5FBF2F402FB145580B222
:2031200040EA0545B5FBF2F002FB105240EA044070BD0268531C03601170704700B500BFA7
:20314000130096469446103928BFA0E80C50FAD85FEA417C28BF0CC048BF40F8042BC907C9
:2031600028BF20F8022B48BF00F8012B00BD00007047000003460846C2680169521C491E84
:2031800000290161C26003D400680122002118474FF0FF307047034608461146C268521EF3
:2031A00011F1010FC26002D000680022184770472DE9F04F89B04FF0FF36009137461968D8
:2031C000129C664D01918DF81F400021039102920FF28C180FF29019834602E00298411CDE
:2031E00002910299087800F0F7FEB0B10398401C0390012200980021D847824600F0ECFEB4
:203200000028F3D10398401E1AF1010F0390E5D0009800225146D847E0E7DDF808A09AF820
:20322000000020B938460028B8BF0020A0E025280AD10AF10100029001782A2919D1401C30
:203240000290401E007815E00398401C0390012200980021D8479AF800108842BED002464A
:2032600069465846FFF797FF002FB8BF002738467EE000208DF81C00002005900AE00598CF
:20328000A84205DA00EB800302EB4302303A0592481C029002990A78A2F130000A28EED3FB
:2032A00006964846097800F0A1FE20B10298401C0290401E00788DF81D009DF81D006828C1
:2032C00002BF02990A78682A05D16220491C8DF81D0002910AE06C2802BF029801786C29A5
:2032E00004D17121401C8DF81D10029002980178404600F07BFEA8B90398401C03900122B7
:2033000000980021D847824600F066FE0028F3D10398401E1AF1010F039003D00098002299
:203320005146D8476946584600F025F8002809DD002F9DF81E0048BF002700283FF44EAF07
:203340007F1C4BE72CB110F1230F08BF30463FF46DAF002F8BD5074689E70000CBCCCC0C49
:2033600063436E5B00000000686A6C747A4C000009B0BDE8F08F70B505460C460020A07790
:20338000A0680178253970D01C3926D0091F022923D90E3965D0491F1AD0C91E7BD0891FCC
:2033A0001BD0891E12D0491E12D0491E022914D9091F0DD0491F15D0491E012908D9091FE5
:2033C00051D0891E04D0C91E02D06BE0002264E021462846BDE87040DDE121462846BDE885
:2033E0007040E9E2207F002848D1617F622908D068291CD06A290ED06C2921D071290AD047
:203400001EE06168616051F8040B616000281DD0E168017032E06168616051F8040B616087
:20342000002813D0E268D317C0E9002326E06168616051F8040B616040B1E16801801DE020
:203440006168616051F8040B616038B90FF6B02000F0D8FD4FF0FF34201A70BDE1680160BB
:203460000CE06C206077012217E0E068401CE06001222068A8470646252E01D1012070BDA6
:20348000324621462846FFF786FE16F1010F09D14FF0FF3070BD4FF0FF3221462846BDE8EF
:2034A000704023E0002070BDC9B207E003789942A4BF83788B4214DAC01CD21E032A09D366
:2034C00043782D2BF2D010F801CB8C4518BF521EF4D106E03AB110F8013B8B4218BF521E3D
:2034E000F8D1012070470020704700002DE9F04F0E4689B08346707F029200274FF00008B8
:203500006C280CBF4FF00109C1460FF61022D2E90001029ACDE90401002A25D5B068411C19
:20352000B160084601785E2903BF421CB26012F801ADC246B56828785D280CBF681C28463B
:203540005D2100F053FD002800F01281411B0091B0600098022807DD821E2D21681C00F0FD
:2035600073FD08B14FF001087069002805DC0298002814BF6FF0004001203061307FC0B9EA
:2035800070687060B9F1000F0AD050F8041B7060019108000DD14FF0FF340FF6881018E03A
:2035A00050F8044B706024B94FF0FF340FF69C100FE0317FB1B9F07FA0B17068706050F8EB
:2035C000041B7060B1F1004F07D34FF0FF340FF6A01000F017FD201ACAE6B069814288BFF9
:2035E0000146B161CDF80CB0CDF81CA0CDF82080DDF808B006950025DDF804A007E004F862
:20360000018B0120B077B069401EB0610227F1683069491C401E0028306100F1B380F16042
:203620003068039B012200219847804618F1010F14D1039842463146FFF7ADFDBBF1000F78
:2036400002D0022F00F09080022F00F09980F80759D418F1010F40F08B8054E0BBF1000FBE
:2036600002DD00F0B9FC10E01FD50899079800290ED10028009A0698414604D100F0E4FC0E
:203680000028D6D011E000F0DFFC0028D1D10CE00028009A0698414603D1FFF705FF20B95C
:2036A000C7E7FFF701FF0028C3D1B9F1000F08D1317F0029AAD1B0690028A0D1039801274F
:2036C000B8E701A804AB00F805806D1C2A4601A902A800F03CFD811C02291DD8DFE801F08B
:2036E00002061600042D47F0010790D3002D4EDD6D1E01A80022415DF068401EF060039BE9
:2037000030689847F2E74FF0FF3031E6029919B901A800F029FD401C10F1030F08BF002052
:20372000DDF80C80074608E06D1E01A80022415DF068401EF0603068C047AF42F4DBCDF8D5
:203740000C80307F50B9B06908B901275FE702994AF8041B401E0121B177B0610227706926
:20376000401E7061002552E7307F48B9B16909B90020FDE5B9F1000F14BFCAF80000207050
:203780000120F5E50398F1604FF0FF3852E7FFB2002FB8D0ECE72DE9F0470F4688B08146B7
:2037A00078690028D8BF6FF000403861EA464846FFF7E0FC2B2818BF2D2807D18DF80000C5
:2037C00039464846FFF7D6FC0DF1010AB96809780026642914BF75290A240DD0692908BFE1
:2037E000002409D06F2908BF082405D070291ABF41F0200178291024302817D13946484686
:20380000FFF7B8FC40F020010126C9B278290AD1002C18BF102C12D139464846FFF7AAFCC4
:20382000102400260BE054B9082408E004B90A24D04619E0386801220021C84701263028B6
:2038400040F0AD80F8683969401C491E00293961F860EFD54FF0FF300126A3E0F8600122D4
:2038600038680021C847012610F1010F00F09E80C2B2612AA8BF573A09DA412AA8BF373A15
:2038800005DAA2F130030A2B34BF303AFF22D2B2E1B28A4280F08A800DF11F01884538BF91
:2038A00008F8010BF8683969401C491E00293961D4D54B46F8604FF0FF3901264A46394635
:2038C0001846FFF768FC3EB9E8450ABF19F1010F00204FF0FF306CE0002088F80000387FF8
:2038E00000285AD1B9680878642818BF692807D122460021684600F09DFC0122BA770AE00A
:2039000022460021684600F047FD0122BA77BA681378702B32D07A7F622A0CD0682A1DD0BE
:203920006A2A11D06C2A21D0712A0DD0742A18BF7A2A1BD022E07B687B6053F8042B7B60FA
:20394000002A21D0107028E07B687B6053F8042B7B60002A18D0C2E900011EE07B687B6037
:2039600053F8042B7B607AB1108016E07B687B6053F8042B7B603AB110600EE07B687B6027
:2039800053F8042B7B603AB90FF2046000F03AFB4FF0FF35281A0CE01060012009E0002E0C
:2039A0003FF446AF30210AF8011B41E74B46814684E708B0BDE8F0872DE9F04F0D4695B0C4
:2039C00069690029D8BF6FF00041296181462946FFF7D0FB2B2818BF2D280DF114084FF05C
:2039E000000B07D18DF8140029464846FFF7C2FB0DF115080A2130288DF80010DA461CD15B
:203A000029464846FFF7B6FB40F02001C9B2782903D04FF0010A5146CAE0302088F8000067
:203A20002946782088F8010008F102084846FFF7A1FB10218DF80010EDE740F02001C9B275
:203A40006E2952D18DF800A008F8011B48462946FFF790FB044644F02000C0B2612840F024
:203A60003882612108F8011B48462946FFF782FB044644F02000C0B26E2840F02A8229468D
:203A80004846FFF777FB0246282A00F0C48129464846FFF780FB6E2008F8010B002088F8B9
:203AA0000000287F002840F0B4819DF800100A2900F3648100235A46002105A800F046FE5D
:203AC00086E14FF0FF36304600F056FF0028344640F0A181303E0A2EC0F09D815F2C00F06D
:203AE0009A81292C40F0F581D5E7692940F0A8818DF800A008F8011B48462946FFF73AFBA0
:203B0000044644F02000C0B26E2840F0E2816E2108F8011B48462946FFF72CFB044644F029
:203B20002000C0B2662840F0D48129464846FFF721FB40F02001C9B2692906D002462946E6
:203B40004846FFF728FB6620A6E729464846FFF711FB044640F02000C0B26E2840F0B981A0
:203B600029464846FFF706FB044640F02000C0B2692840F0AE8129464846FFF7FBFA044623
:203B800040F02000C0B2742840F0A38129464846FFF7F0FA044640F02000C0B2792840F0B9
:203BA0009881662078E7286801220021C8470121302840F03F812969491E2961E868401C8B
:203BC0000029E860EFD54FF0FF304FF0010A34E1E860012228680021C847012110F1010F85
:203BE00000F03381C2B2612AA8BF573A09DA412AA8BF373A05DAA2F130030A2B34BF303ACD
:203C0000FF229DF80030D2B29A4280F01E81242CBABF06F8010B641C7F1C2969491E2961DE
:203C2000E868401C0029D3D5CDF8089001950396BB4601990494C8604FF0FF36012700F094
:203C40008DFA406A01788E4209D10399491C039101F8016D01990298FFF78CFA064604987C
:203C600030BB029C019D06E0E860012228680021A04706460127302E40F0F0802969491EC9
:203C80002961ABF1010BE868401C0029ECD502940195E8604FF0FF360127BBF1000F07D5B5
:203CA0000399491C0391302001F8010D0BF1010B30463946DDF80890019D039C9DF800607C
:203CC000049F05E0E860012228680021C847012110F1010F00F0C580C2B2612AA8BF573AD2
:203CE00009DA412AA8BF373A05DAA2F130030A2B34BF303AFF22D2B2B24280F0B280242FD9
:203D0000BCBF04F8010B7F1C2969491E2961E868401C0029D6D5A0468DF80060E8604FF030
:203D2000FF344FF0010AA3E0286801220021C8470121302840F0BE802969491E2961E868E5
:203D4000401C0029E860EFD54FF0FF300121B3E04FF0FF3010E0082EBCBF04F8010B761C06
:203D60002969491E2961E868401C0029E860EFD4286801220021C8470121A2E00023002214
:203D8000002105A800F0E2FC0B465A00520D02EB8B0411D0002C0FDD40F2FF72944206DBAE
:203DA000564B01F0004040EA0301002010E06FF31E5343EA04510BE021F00043002620F029
:203DC0000002B3420EBFB2424FEA8B0200F0DEFD0122AA776A7F6C2A18BF4C2A08D16B68DE
:203DE0006B6053F8042B6B6042B1C2E9000110E06A686A6052F8044B6A603CB90FF2B0106F
:203E000000F000F94FF0FF34201A73E000F05CFE206001206EE02869401E2861E968491C53
:203E20000028E9603FF54DAE286801220021C847064648E65FEA010A02D0302108F8011BF2
:203E40000024464600275146C8E6CDF8089001950396BB4606460F460494F0E6029401957E
:203E60001BE7A0465FEA010A04468DF8006030D09DF800000A2802BF44F02001C9B26529F1
:203E800006D00A2825D044F02000C0B2702820D108F8014B29464846FFF76CF92B2818BF08
:203EA0002D2805D108F8010B29464846FFF762F900213EE70A0002D0302208F8012B0026B7
:203EC0004446A0F130020A2AFFF445AFA04604468A46224629464846FFF75DF9BAF1000F0F
:203EE0007FF4DCAD05A880450ABF14F1010F00204FF0FF3015B0BDE8F08F00000000F07F90
:203F00007363616E665F733A2062616420256E20617267756D656E7400000000000000000D
:203F2000000000007363616E665F733A2062616420256C632C20256C732C206F7220256CE1
:203F40005B20617267756D656E7400007363616E665F733A206261642025632C2025732C6D
:203F6000206F7220255B20617267756D656E74007363616E665F733A206261642025632CEB
:203F80002025732C206F7220255B2073697A65007363616E665F733A2062616420696E74F8
:203FA0006567657220617267756D656E740000007363616E665F733A2062616420666C6F1C
:203FC0006174696E672D706F696E7420617267756D656E740000000010B5044600F07EF87F
:203FE00001462046096ABDE8104008470278C9B28A421AB11CBF10F8012FF9E718BF0020E7
:020000040801F1
:204000007047000080B508B90FF21C0005490B681BB122220021984701E0FDF765FA22208F
:2040200002BD00002C870020636F6E73747261696E742068616E646C65723A20626164200A
:204040006D65737361676500C9B2830706D0521E22D310F8013B9942F7D11FE0083A13D32D
:2040600002F1040241EA012141EA014150F8043B121F21BF4B40A3F1013C2CEA030C1CF068
:20408000803FF3D0C9B2001F083210F8013B521E28BF91EA030FF8D818BF0120401E7047C5
:2040A000613807E005E0A0F161011A2901D20120704741381A288041C00F7047A0F109011D
:2040C000052901D3202801D10120704700207047A0F141011A2938BF2030704720487047E2
:2040E00030B45368D418042B09DA41B1057804F8015B10F8015B15B15B1C491EF3E75360C7
:2041000030BC704770B50446084611001D4615D0049E2A46FFF7E4FF69681CB9726B28460A
:20412000904704E00A46B36B2946204698476FF00102811A02D0491E03D005E06FF0010054
:2041400070BD4FF0FF3070BD0021696070BD10B582B0034C0094FFF7D5FF16BD0148704709
:20416000001000204810002000F10103810704D010F8011B89B18107FAD10268B2F1013156
:20418000914311F0803F04BF50F8042FF6E710F8011B11B110F8011BFBE7C01A70472DE9DD
:2041A000F8430D00804691461E4608BF6D46444600E0641C2078FFF70FFF0028F9D120782C
:2041C0002D2816BF2B2814F8017B2B2733464A462946204600F032F82A68944205D1C5F895
:2041E000008000200021BDE8F4832B2F05D14FF00043994209D2BDE8F4832D2FFBD1B1F194
:20420000004F12D301D801280FD3AFF300800EB1012030602D2F19BF4FF0FF306FF00041B2
:2042200000204FF00041BDE8F483404261EB4101BDE8F48300BF0023B1E700002DE9F84FBF
:2042400086B00E4615460BB100221A6081464C4600E0641C2078FFF7BFFE0028F9D1207893
:204260002D2816BF2B2814F8018B4FF02B08002D019603D4012D01D0252D04DB002E54D09A
:20428000C6F8009051E0002D0ADD102D04BF2078302802BF617841F0200178290ED10AE045
:2042A0002078302818BF0A2508D1607840F02000782802D11025A41C00E00825049400E01A
:2042C000641C20783028FBD00020CDE902000FF2D00200268246A34600278DF8002012E063
:2042E0002A46CDE9026A9DF80070EB17C71BA2FB060102FB0A1103FB0611FFB20023C619BF
:2043000041EB030A641C207800F012FC01462A460FF28C00FFF798FE0028E1D10498A04226
:2043200006D1019808B1C0F800900020002130E00FF29400A4EB0B01405D081A00281DD4B3
:2043400012DC0022F01B6AEB02018A450CD301D8864209D32A46EB17FEF774FEDDE90223FB
:20436000994208BF904209D0AFF30080069808B1012101604FF0FF36B24605E0B8F12D0FBE
:2043800002D176426AEB4A0A019800B104603046514607B0BDE8F08F00BF00234EE700003C
:2043A000303132333435363738396162636465666768696A6B6C6D6E6F70717273747576B3
:2043C0007778797A0000000000004129211C19171615141312121111111010100F0F0F0F0F
:2043E0000E0E0E0E0E0E0E0D0D0D0D0D0D0000002DE9984C41EC100B2DED028B43EC182BB2
:2044000053EC102B23F00041B1F5801F82B00DD20022914208BF9042009216D06A4651EC85
:20442000100B00F08FFB41EC100B0EE0DFF8BC44DFF8BC7404EB115000903B40DFF8B404E9
:20444000924643EA000B4BEC10AB53EC102B51EC180B00F0AFFB41EC100B4800009A400D6F
:204460001218E8B1002A1BDD40F2FF7082420DDB9FEDB21B51EC110B084653EC102B03F09D
:204480000041084353EC112B034606E06FF31E5141EA025153EC102B0B4643EC102B0FE073
:2044A00051EC100B21F000410022914208BF904206D0009A51EC100B00F068FA41EC100B62
:2044C00068E000002DE9984C41EC100B2DED028B43EC182B53EC102B23F00041B1F5801F26
:2044E00082B00DD20022914208BF9042009216D06A4651EC100B00F025FB41EC100B0EE057
:20450000DFF8E843DFF8E87304EB115000903B40DFF8E003924643EA000B4BEC10AB51EC13
:20452000100B53EC182B00F017FC41EC100B4800009A400D1218E8B1002A1BDD40F2FF70DE
:2045400082420DDB9FED7D1B51EC110B084653EC102B03F00041084353EC112B034606E041
:204560006FF31E5141EA025153EC102B0B4643EC102B0FE051EC100B21F000410022914229
:2045800008BF904206D0009A51EC100B00F0FEF941EC100B02B051EC100BBDEC028BBDE8A6
:2045A000948C0000F8B52DED028B140041EC180B1D4600F0BD8020F0000221F0004300200D
:2045C000834208BF824200F0B38048004015401C02D1090300F0AC80002C9FED5A0B15D56D
:2045E00064420FF24C370826002C18BF002E56D0E00707D5D7E9002351EC100B00F0DAFA4A
:2046000041EC100B64080837761EEDE778DD0FF220370826E00707D5D7E9002351EC100B66
:2046200000F0C8FA41EC100B64100837761E002C01DD002EEED153EC102B51EC180BFFF772
:20464000D7FE41EC180B20F0000221F000430020834208BF824253D048004015401C01D171
:2046600009034DD0002C4BDDA34AA44B51EC180BFFF7BEFE41EC180B20F0000221F0004319
:204680000020834208BF82423AD048004015401C01D1090334D0641E002CE5DC30E053EC07
:2046A000102B51EC180BFFF70DFF41EC180B20F0000221F000430020834208BF82421FD048
:2046C00048004015401C01D1090319D0C4B18C4A944B51EC180BFFF78BFE41EC180B20F0B1
:2046E000000221F000430020834208BF824207D048004015401C01D1090301D0641EE6D13C
:2047000051EC180B20F0000221F000430020834208BF824205D048004015401C08D10903B0
:2047200006D1AFF300801DB1286840F00100286051EC180BBDEC028BF4BD00000000000022
:204740000000F07F000000000000F03F2DE9F14D81B01D002DED028B84B01CBF00202860BB
:20476000079E0F46904607A800F019FCC41020F00800012804F0010430D10220009001AB48
:2047800007993A46304600F09BFC070008BF9FED660B1ED0029800F077FD022F41EC100BCC
:2047A00017DB03AE7F1E9FED578B51EC100B53EC182B00F0FFF9824656F8040B8B4600F0A3
:2047C00063FD52465B4600F071FD7F1E41EC100BEBD101982B4600EB080266E002286BD196
:2047E000009001AB07993A46304600F01BFE070008BF9FED4D0B1ED0029800F045FD022F41
:2048000041EC100B17DB03AE7F1E9FED408B51EC100B53EC182B00F0CDF9824656F8040B04
:204820008B4600F031FD52465B4600F03FFD7F1E41EC100BEBD151EC100B019F4800400DF6
:2048400007EB00021DD0002A1BDD40F2FF7082420DDB9FED301B51EC110B084653EC102B10
:2048600003F00041084353EC112B034606E06FF31E5141EA025153EC102B0B4643EC102B8B
:2048800011E051EC100B20F0000221F000430020834208BF824206D03A4651EC100B00F05B
:2048A00075F841EC100B2B46424651EC100BFFF779FE41EC100B0AE0032808BF9FED150BB5
:2048C00005D004280CBF9FED150B9FED170B2CB151EC100B81F0004141EC100B04B051EC92
:2048E000100BBDEC028BBDE8FC8D000002FCFFFFFFFF0F800000E03F3CBF737FDD4F1575EE
:20490000436FAC640000000065CDCD41000000000000B041000000000000F07FFFFFFFFF39
:20492000FFFFFF7F2806C80A000000000000000000000000000024400000000000005940FE
:20494000000000000088C3400000000084D797410080E03779C34143176E05B5B5B89346BD
:20496000F5F93FE9034F384D321D30F94877825A3CBF737FDD4F157510B50446FFF7AEFBE6
:20498000014620460969BDE810400847124254D440F2FF7C1CEA11530FD0634531D09B18E6
:2049A00063453CBF01EB0251704701F0004141EA0C510020AFF30080704750EA410320D03D
:2049C00001F0004C91EA0C011CD0B1FA81F30B3B9A420DD9D21A994051EA0C01C3F1200C12
:2049E00020FA0CFC61449840531C40F2FF7CD7E7914041EA0C01C2F1200C20FA0CF31943E1
:204A000090407047B0FA80F31533202BE0D3202AEED3203A203B9A4209D9D21A00FA03F154
:204A200041EA0C010020531C40F2FF7CB8E700FA02F141EA0C0100207047524240F2FF7C26
:204A40001CEA11530DD06345DBD0B2EB030C3CBFA1EB025170470CF1010221EA035141F4EB
:204A6000801150EA410CCCD001F0004C352A27DC30B481EA0C01B2F1200309DAC2F1200308
:204A8000044601FA03F5D0402843D1409C400CE0C3F12002450020FA03F418BF44F0010449
:204AA00021FA03F091400C43002174F1004550F1000051EB0C01244230BC7FF47BAF7047CD
:204AC0006146002076E7000001F000428B1AA3F16051B1F5801F0ADBB1F17F6F1FD242EABE
:204AE000C102C10071F1004142EB507070470B15C3F10903212B10D2890241EA90518002C4
:204B00000128494141F0004121FA03F0C3F12003994071F1004150417047100070476FF0A1
:204B2000000013EB103F5CBF000E42EAC050704710B50446FFF7D2FA01462046896ABDE8F6
:204B40001040084710B5144600F002F8226010BDC1F30A5343B14A0012F5001F28D2A3F25A
:204B6000FE32A1EB0251704750EA410C20D001F0004C31EA0C01B1FA81F204BFB0FA80F395
:204B8000D2180B3AB2F120032CBF00FA03F1914041EA0C013EBFC2F1200C20FA0CF31943ED
:204BA0009040524240F2FD33D21A01EB0351704700227047B0B581EA030C0CF0004C40F21A
:204BC000FF7515EA11541DBF15EA1357AC42AF4239E0E41923EA455343F48013C90241F058
:204BE000004141EA505EC7021100A7FB020200284FF00000EEFB01204FF00001E3FB072164
:204C000018BF42F00102401800214941E3FB0E01A4F580640F0302D252004041494154F193
:204C200001046CDD470872F1004250F1000051EB0451A1F580115CBF41EA0C01B0BD4CEA43
:204C400005510020B0BD05EA1357AC4214BFAF4241E050EA410E1CBF52EA430E02E06146CB
:204C60000020B0BD24423C441BD15FEA070EF6D0090302BF01460020AEF1140EB1FA81F799
:204C8000AEEB070401FA07FE0C37C7F1200100FA07F7C8404EEA000E23EA455343F480139F
:204CA000A2E733F00043B3FA83F704BFB2FA82FE77440B3FE41BB7F1200E2FBF02FA0EF32A
:204CC000BB40C7F1200E22FA0EFE38BF43EA0E03BA40641C82E750EA410E14BF52EA430ECA
:204CE0006FF000014FF4001717EB430F8ABF194617EB410FB5E74CEA05510020B0BDD4F132
:204D00000104B4F120070FDAC4F12007520828BF42F0010210FA07F501FA07F7E1BF2A437B
:204D2000E0403843E1400FE0352C98DCC7F1200452EA400220FA07F218BF42F0010231FA4F
:204D400007F0A1400A43002172F1004250F1000051EB0C01B0BD0000F0B540F2FF7581EABB
:204D6000030C0CF0004C15EA11541DBF15EA1357AC42AF42E5E0BC41C1F31301C3F31303FE
:204D8000801A994143F4801304D2641E4000494180185941C90241EA5051B1FBF3F603FB57
:204DA0001611A2FB0675D7EBC020A94102D2761E80185941C90241EA5051B1FBF3FE03FB5C
:204DC0001E11A2FB0E75D7EBC020A94103D2AEF1010E80185941890241EA9051760546EA01
:204DE0008E2EB1FBF3F603FB1611A2FB0675D7EB8020A94102D2761E80185941C90241EA49
:204E000050514EEA060EB1FBF3F603FB1611A2FB0675D7EBC020A94102D2761E80185941AD
:204E2000C90241EA5051B1FBF3F703FB1711A2FB0735D3EBC020A94167F100070CBF004252
:204E400047F0010766F3D5274FEA1E31B80814F5806412DDBD0775F1004250EB0E5051EB59
:204E6000045111F5801F5CBF41EA0C01F0BD4CF07F6141F0E0410020F0BDBD076D0840EA9A
:204E80000E5041F48011D4F10104B4F120060ADAC4F120060200E04001FA06F3E140184308
:204EA000B24015430EE0342C13DCC6F1200445EA40056D0820FA06F2154321FA06F0A1404B
:204EC0000D43002175F1004250F1000051EB0C01F0BD00205FEA0C01F0BDCFB992185B4191
:204EE000B3FA83F704BFB2FA82F6BF190B3FB7F120062FBF02FA06F3BB40C7F1200622FADC
:204F000006F638BF3343BA401CB1E419641E33E77F4231F00041B1FA81F404BFB0FA80F6A2
:204F2000A4190B3CB4F120062FBF00FA06F1A140C4F1200620FA06F638BF3143A0403C1B4F
:204F40001AE7AC421ABF05EA1357AF4212E050EA41061CBF52EA4306BFE750EA41073046CE
:204F600061461CBF41EA0551F0BD52EA430C08BFC143F0BD00204FF4001616EB410F98BF5D
:204F800016EB430F08BF16EB410F24BFC14305E016EB430F0CBF61464CEA0551F0BD2DE9C6
:204FA000F84306460D463468002700E0641C2078FFF712F80028F9D120782D280CBF082783
:204FC0002B2800D1641C207840F020016E2927D1607840F02000612802BFA07840F02000DB
:204FE0006E2802D03468002746E0E41CA046042798F8000028283FD118F8019F4846FFF72B
:20500000BBFC0028F8D1A9F130000A28F4D398F800005F28F0D029282ED108F101042BE0F5
:2050200069292CD1607840F020006E2802BFA07840F02000662802D0346800271CE014F8CF
:20504000030F40F02000692802BF607840F020006E2847F003070FD1A07840F020006928C4
:2050600002BFE07840F02000742805D1207940F02000792808BF641DF5B12C601CE03028FD
:2050800002BF607840F02000782813D1A01C01782E2908BF401C0078A0F16101062921BF7A
:2050A000A0F14102062A30380A2803D2A41C47F0020701E047F0010734603846BDE8F28331
:2050C0002DE9F04F8DB09246169A02EBC202814600202D2AC8BF2D221860804658600026D5
:2050E00001E0491C01260C78302CFAD000240DF1040B0D78A5F130070A2F80F0998094427E
:2051000007DB1D686D1C1D600D78302D05D0012003E0303D0BF80450641C491C0126E8E7C8
:205120002868401E28607F1C012638783028F7D03878169AA0F130010A2980F089809442C4
:2051400007DA01A930380855641C2968491E296003E030281CBF012000907F1C0126E7E7A7
:205160000DF10301095D49B92A68521C2A60641E002CF5DC04BF8DF804800124002E4CD081
:205180004FF0090C94FBFCFCC4F109030CEBCC000344092193FBF1F1002201EBC101591A8C
:2051A00018BF4FF00108C446A2425ADA092193FBF1F101EBC101591A0AD055F82C1001EBA4
:2051C00081001BF8021001EB400045F82C0005E01BF802100CF1010C45F82C105B1C521C22
:2051E000E2E700210022274808E0824204DA02EB82010CEB4102303A7F1C012197F800C08A
:20520000ACF1300EBEF10A0FEFD32D2C2C6808BF524212192A6001B91F46BAF1000F03D080
:2052200006B94F46CAF8007040460DB0BDE8F08F169200900F461D46FEF790FF406A3978B2
:205240000278914208BF7F1C002C7FF471AF6CE7009900298CD00DF103018B5C5B1C8B5430
:2052600086E7397841F020016529E046D5D13B4617F8011F2B2916BF2D2917F8014B2B248B
:20528000AFE700BF00E1F505C11768B14840401AB0FA80F29040D21CC907C2F5846241EA99
:2052A000025202EBD02140057047000070B44FF0004591EA030F40F1DB816B40841A71EB59
:2052C000030604D26E40001BB141121973414FF4001C1CEB410F34BF7CEB430682E00C0D81
:2052E000A4EB1356362E7BDC012E45EAC32341DC43EA525312BFD20292025B08240545EAD4
:20530000C12141EA5051D2EBC020994125D407D1B0FA80F610FA06F162D00020203608E0E6
:20532000B1FA81F6B140C6F1200220FA02F21143B0404FEAF474B4EB465434F001064FEAF1
:2053400074040AD8D6F50016760D04F00044F04061FA06F25040F1404840C00A40EA415006
:2053600021F0004128BF5FEA500550F1000044EBD12135E0DB0A45EAC121C90AB6F120054A
:205380000EDD42EA0242120CC5F1200603FA06F6EB4042EA06056D42984161F100010DE095
:2053A00062FA06F5F240554063FA06FC82EA0C02F3405A406D42904161EB030111F4801FB5
:2053C00005D1641E620502D06D004041494121F48011430875F1004350F1000041EB045168
:2053E00070BC70471CEB410F15D223F0004352EA43060BD04FEA4C0CBCEB410F04D80C0D59
:20540000661E342EB7DDEBE7801A994150EA410608BF0021E4E708BF1CEB430F28BF6FF032
:205420000001DDE72DE9F04F8BB0054614980027C0EBC00023281F601646C8BF23205F60DF
:20544000BB4602E0491C4FF0010B0A78302AF9D00FF2DC188A460024CDF82480994614903F
:205460009AF8001016224046FEF7EEFD002800F0AC801499A14205DAD9F80000401CC9F84B
:20548000000007E0099A0FF2C011801A085C0DF80400641C0AF1010A4FF0010BE0E7D9F840
:2054A0000000401EC9F800000AF1010A4FF0010B9AF800003028F2D09AF800101622404670
:2054C000FEF7C2FD0028149900F08D80A1420CDB0FF27411A0EB0800085C0DF80400641C76
:2054E000D9F80010491EC9F800100AF1010A4FF0010BE1E70DF1FF31095D59B9D9F80020E3
:20550000521CC9F80020641E002CF3DC04BF8DF800700124D9F800209200BBF1000FC9F8E3
:20552000002047D04FF0070C94FBFCFCC4F10703CCEBCC0C6344072193FBF1F10022C1EB00
:20554000C101591A18BF0127BC46A2425DDA072193FBF1F11DF80270C1EBC101591A1ABF21
:2055600059F82C1007EB01170CF1010C49F82C705B1C521CE9E7002100222C4809E0824294
:2055800004DA02EB82010EEB4102303A0AF1010A01219AF800E0AEF13008B8F10A0FEED323
:2055A0002D2CD9F8004008BF52421219C9F8002001B99A462EB1BBF1000F08BFAA46C6F871
:2055C00000A038460BB0BDE8F08FFEF7C7FD406A9AF800100278914208BF0AF1010A002C83
:2055E0007FF46AAF64E7A1428EDA1DF80120072A04DD0DF1FF32535C5B1C53540C46D9F822
:205600000010491CC9F800107EE79AF8002042F02002702A6746CDD153461AF8011F2B29D5
:2056200016BF2D291AF8014B2B24A4E700E1F50530313233343536373839616263646566CA
:205640004142434445460000000102030405060708090A0B0C0D0E0F0A0B0C0D0E0F0000F2
:2056600070B44FF0004591EA030F7FF527AE6B40841A71EB030603D2001BB141121973413D
:205680004FF4001C1CEB410F34BF7CEB430442E00C0DA4EB1356352E4FDC45EAC323DB0AF8
:2056A00045EAC121C912B6F120050DDD63FA05F6EB4086EA0305124218BF45F00105C0180F
:2056C00051F100010CD213E062FA06F5F2405540F3415A40B340F3405A408018594107D3FE
:2056E00049085FEA30005FEA350528BF45F0010501F58011420875F1004250F1000041EB55
:2057000004514E0016F5001F70BC38BF70470020090D090570471CEB410F10D252EA430629
:205720000BD0BCEB410F05D80C0DAB43661E342EB6DD02E0AB438018594170BC704770BC29
:205740007047000000200121DFF8A02A117040B2704700200221DFF8942A11700221DFF832
:205760008C2A51700221DFF8842A917040B2704700200321DFF8742A11700021DFF8F02B13
:20578000517740B2704700200221DFF8602A51700221DFF8582A917040B2704710B5002424
:2057A000002300225221DFF8480A007800F0C5FF0320DFF8381A0870200040B210BD10B574
:2057C0000024DFF8280A4078022802D0032814D017E0002301225721DFF8140A007800F0C7
:2057E000ACFFC821032001F013FCDFF8000A4078401CDFF8F819487003E0002001F0ACFCC1
:20580000FEE7200040B210BD70B50024DFF8DC094078022809D0C0F00081042800F0C68071
:2058200030D3052800F0F180F7E0DFF8C819DFF8C00902784FF40060424301EB020042F6E0
:205840004101405CDFF8B0190870DFF8B039DFF8B029DFF8B019DFF89C59DFF89409067884
:205860004FF40060464305EB060042F64305284402F032F8DFF874094078401CDFF86C193A
:205880004870CAE0DFF870090078572840F07F80DFF86C090078002808D002281AD00FD376
:2058A00004282BD020D3052832D03BE0DFF84C090068072803DB0120DFF84019086031E019
:2058C000DFF838090068072803DB0120DFF82C19086027E0DFF824090068072803DB0420F2
:2058E000DFF8181908601DE0DFF810090068072803DB0420DFF80419086013E0DFF8FC0888
:205900000068072803DB0420DFF8F018086009E0DFF8E8080068022803DB0020DFF8DC189C
:205920000860FFE7DFF8D80800780028042802D9401F15D01FE0DFF8C4080068DFF8341A48
:20594000DFF8BC281268114448700421DFF8240ADFF8AC2812681044401C01F0D1FF0AE05B
:20596000DFF898080068DFF80C1A08700421DFF8040A01F0C5FF6421032001F049FBDFF860
:205980006C084078401CDFF86418487003E00520DFF85818487000230222DFF85C08017872
:2059A000DFF84C08007800F0C8FE36E0DFF8500800780028042802D9401F0ED01DE0DFF891
:2059C000B409DFF83C18096808444178DFF830080068C0B201F028FC0FE0DFF8980900788C
:2059E000002806D10120DFF80818087000F003FE03E00220DFF8F8170870DFF8F00740783E
:205A0000401CDFF8E817487007E00220DFF8DC1748700320DFF8D4170870200040B270BD75
:205A200080B5DFF8C80A90F9003003225721DFF8C007007800F081FE0320DFF8B017087074
:205A4000DFF8A80A90F9000002BD10B5DFF89C074078022804D07AD3042869D034D376E071
:205A60000020DFF88C1A08600020DFF804190861DFF8F029DFF8F019DFF87837DFF8700700
:205A800004784FF40060444303EB040042F64403184401F021FFDFF8D8084069002806D024
:205AA000DFF8CC084069DFF84C1A884204D3DFF8480ADFF8BC184861DFF830074078401C15
:205AC000DFF82817487042E04FF4C07002F02CF8072001F0F6FF0100DFF8200A4118DFF80E
:205AE000200A02F072F8DFF81C1A0870DFF8140A90F90000002807D1DFF8F0064078401C3C
:205B0000DFF8E816487012E0DFF8E4090068401CDFF8DC190860DFF8D8090068032806DB1E
:205B2000DFF8C8064078401CDFF8C01648700EE0DFF8D00990F9003004225721DFF8B006C5
:205B4000007800F0FAFD0320DFF8A0160870DFF8B40990F9000010BD10B582B06A46DFF856
:205B6000A819DFF89036DFF8880604784FF40060444303EB040042F64403184401F0ACFE54
:205B80000098001D0004DFF8E8170860002305225721DFF85C06007800F0CFFD0320DFF8E5
:205BA0004C160870DFF8640990F9000016BD7CB58020FBF7C1F805006A46DFF85419DFF81F
:205BC0003436DFF82C0606784FF40060464303EB060042F64403184401F07EFE009880282C
:205BE00045DA002004000098844219DA01AADFF82419DFF80036DFF8F80506784FF4006050
:205C0000464303EB0600204442F64603184401F063FE022094FBF0F001992954A41CE2E743
:205C2000022094FBF0F1280002F04CF8DFF8E8180870DFF83C070069401CDFF834170861BB
:205C4000DFF82C0780694000DFF824178861DFF820078069002805D0DFF814078069B0F5B2
:205C6000807F08D10120DFF80817886103E00120DFF8A4180870DFF8A00890F900300622DD
:205C80005721DFF86C05007800F057FD0320DFF85C150870280002F027F9DFF87C0890F987
:205CA000000076BD80B5DFF844058078022802D0032813D01DE0DFF8640890F90030072238
:205CC0005721DFF82C05007800F037FDDFF81C058078401CDFF8141588700AE00220DFF881
:205CE0000C158870DFF804054078401CDFF8FC144870DFF8280890F9000002BD80B5DFF89D
:205D0000EC04807802280ED0C0F0AC80042844D018D3062800F081804BD3082800F0978018
:205D2000C0F088809EE00020DFF8F41708600C2002F0F1F8DFF8B4048078401CDFF8AC1442
:205D400088708FE0022001F0EFFE01F015FFDFF8D4170870DFF8CC0790F90000002807D16A
:205D6000DFF888048078401CDFF88014887013E0DFF8AC070068401CDFF8A4170860DFF8F7
:205D8000A0070068032807DB0120DFF8981708701220DFF85814487064E00020DFF88017C9
:205DA0000860DFF848048078401CDFF84014887058E0602001F0B8FE052001F082FEDFF815
:205DC000681708180100DFF8640701F0FEFEDFF854170870DFF84C0790F90000002807D187
:205DE000DFF808048078401CDFF80014887013E0DFF82C070068401CDFF824170860DFF877
:205E000020070068032807DB0120DFF8181708701220DFF8D813487024E04FF4967103202A
:205E200001F0F6F8DFF8C4038078401CDFF8BC13887017E0032001F0F1F8002806D1DFF829
:205E4000AC038078401CDFF8A41388700AE00220DFF898138870DFF894034078401CDFF8DA
:205E60008C134870DFF8BC0690F9000002BD80B5DFF878038078022807D069D3042849D0E9
:205E80002AD306285CD050D362E00D2002F043F8DFF8DC04006810F1010F18D0DFF8D00429
:205EA0000068001FDFF8C8148860DFF85406DFF8C0140860DFF87406DFF8B4144860DFF80D
:205EC0002C038078401CDFF82413887003E01220DFF8181348703BE001F030FFDFF85016F2
:205EE0000870DFF84C0690F90000012804D11220DFF8F81248700CE0DFF874048068DFF8B5
:205F000070140968884204D2B8488078401CB74988701DE04FF49671032001F079F8B348D9
:205F20008078401CB149887012E0032001F076F8002804D1AD488078401CAC49887007E08D
:205F40000220AA498870A9484078401CA7494870DFF8DC0590F9000002BD80B5A34880786F
:205F6000022807D05BD304283BD016D306284ED042D354E00E2001F0CEFFDFF88405DFF81A
:205F8000F0130860DFF8A405DFF8E413486097488078401C9549887041E001F0F4FEDFF8BC
:205FA00094150870DFF88C0590F90000012803D112208E49487013E0DFF8B4038068DFF8D1
:205FC000B013096888420BD2DFF8A4034068001FDFF89C13886085488078401C834988704E
:205FE0001DE04FF49671032001F012F87F488078401C7E49887012E0032001F00FF800282D
:020000040801F1
:2060000004D17A488078401C7849887007E002207649887075484078401C74494870DFF8FF
:20602000140590F9000002BD80B570488078022807D063D3042843D010D3062856D04AD350
:206040005CE00020DFF8F01408600F2001F063FF66488078401C654988704FE04FF4C070D5
:2060600001F062FD072001F02CFDDFF8901408180100DFF88C0401F0A8FDDFF8C0140870D3
:20608000DFF8B80490F90000002805D157488078401C5649887012E0DFF89C040068401C2F
:2060A000DFF894140860DFF890040068032806DB0120DFF88814087012204C4948701DE092
:2060C0004FF49671032000F0A3FF48488078401C4649887012E0032000F0A0FF002804D1B5
:2060E00042488078401C4149887007E002203F4988703E484078401C3C494870DFF83C04C9
:2061000090F9000002BD80B538488078022809D066D304283BD012D306284ED042D30728A2
:2061200056D05DE00020DFF818140860102001F0F2FE2E488078401C2C49887050E00220D7
:2061400001F0F2FC01F06DFDDFF8F8130870DFF8F40390F90000002809D1C821032000F056
:2061600057FF22488078401C204988700EE0DFF8D0030068401CDFF8C8130860DFF8C0039A
:206180000068032802DB12201849487028E0032000F044FF002804D114488078401C1349DD
:2061A00088701DE04FF49671032000F031FF0F488078401C0D49887012E0032000F02EFF32
:2061C000002804D109488078401C0849887007E002200649887005484078401C034948701F
:2061E000DFF8600390F9000002BD000004870020E9600020981000203387002010870020B0
:206200000C87002078BC010880B5DFF83C038078022811D0C0F0A78004283CD01BD3062815
:206220005FD041D3082800F0808063D30A2800F09280C0F0858096E00020DFF810130860E4
:20624000102001F068FEDFF800038078401CDFF8F812887087E0022001F048FC022001F0DF
:2062600081FC002807D1DFF8E0028078401CDFF8D81288700EE0DFF8D4020068401CDFF8A5
:20628000CC120860DFF8C4020068032802DB1220AD49487067E00020AC490860AA4880781D
:2062A000401CA94988705EE04FF4C07001F01EFC4FF4C07001F056FC002805D1A248807846
:2062C000401CA14988700BE0A0480068401C9F4908609E480068032802DB12209A49487076
:2062E00041E000209949086097488078401C9649887038E0602001F0F9FB602001F032FCED
:20630000002805D190488078401C8F4988700BE08E480068401C8D4908608C480068032859
:2063200002DB1220884948701DE04FF49671032000F06EFE84488078401C8349887012E029
:20634000032000F06BFE002804D17F488078401C7D49887007E002207B4988707A484078AC
:20636000401C794948707A4890F9000002BD000078860020F886002080B57348807802286F
:2063800006D02CD3042817D00BD305281FD026E0112001F0C0FD6C488078401C6A49887083
:2063A0001DE04FF49671032000F032FE66488078401C6549887012E0032000F02FFE002851
:2063C00004D161488078401C5F49887007E002205D4988705C484078401C5B4948705D48EB
:2063E00090F9000002BD80B557484078022814D0032815D0042816D0052817D0062818D06F
:20640000072819D008281AD009281BD00A281CD011281ED012281CD01FE0FFF743FC1CE093
:20642000FFF76CFC19E0FFF722FD16E0FFF795FD13E0FFF7F9FD10E0FFF765FE0DE0FFF767
:20644000E3FE0AE0FFF798FF07E011203E49487003E0002000F080FEFEE73F4890F9000027
:2064600002BD00008C860020F0BC010880B5032000F0D4FD002838D133480078002811D030
:20648000022815D011D3042818D014D306281BD017D308281ED01AD30A2821D01DD30B28BA
:2064A00021D022E0FFF74EF91FE0FFF752F91CE0FFF75EF919E0FFF766F916E0FFF76EF982
:2064C00013E0FFF77CF910E0FFF79EF90DE0FFF7A7FA0AE0FFF7B9FA07E0FFF73DFB04E0D1
:2064E000FFF765FB01E0FFF77EFF01BD3487002014870020A08601009F860100FFFF070844
:206500000000060835870020F8BC01083687002000BD010808BD01083787002038870020A6
:206520001887002039870020FFFF0308000002083A8700203B8700201C8700203C87002040
:20654000208700203D87002004870020248700203E8700203F8700204087002080B5FFF73D
:2065600085FF01BD10B500224FF40051DFF8200AFCF752FC01F00AFF01F00FFF01F014FF1F
:2065800001F019FF0024E4B2052C1DDADFF8040AE4B2204441782000C0B200F045FE002093
:2065A000DFF8F419E4B240F6080202FB04F2114448600020DFF8E019E4B240F6080202FB6E
:2065C00004F28850641CDEE70020DFF8D01908700020DFF8CC19C870DFF8B8090078002804
:2065E00004D10120DFF8BC19087003E00220DFF8B419087010BD80B5DFF898090078002846
:206600000BD1DFF8A4090068FDF7AEFD0200DFF898090168012000F039F801BD10B4030069
:20662000002000248C4203DA1A5D1018641CF9E790F0FF00401CC0B210BC7047F8B50400EB
