:020000040802F0
:1000000098190320E901060821BF050823BF050848
:1000100025BF050827BF050829BF05080000000007
:100020000000000000000000000000002BBF0508D9
:100030002DBF0508000000002FBF050831BF0508CF
:1000400085130608891306088D1306089113060800
:100050009513060899130608E7BF05083BC0050875
:1000600053C005085DC0050867C005089D13060854
:10007000A1130608A51306085BC10508A913060805
:10008000AD130608B1130608B5130608B913060820
:10009000BD130608C1130608C5130608C9130608D0
:1000A000CD130608D1130608D5130608D913060880
:1000B00071C005087FC005088DC00508DD1306085E
:1000C000E1130608E5130608E9130608ED13060810
:1000D000F11306089BC00508DBC005081BC1050815
:1000E000F5130608F9130608FD130608011406089F
:1000F00005140608091406080D140608111406084C
:1001000015140608191406081D14060821140608FB
:1001100025140608291406082D14060831140608AB
:1001200065C1050835140608391406083D1406088B
:100130004114060845140608491406084D1406081B
:100140005114060855140608591406086FC105080D
:100150005D140608611406086514060879C10508CF
:10016000691406086D14060871140608751406084B
:10017000791406087D1406088114060800000000A2
:100180008514060889140608B9C10508C3C1050805
:100190008D1406089114060895140608991406088B
:1001A00000000000000000009D140608A1140608CD
:1001B000A5140608A9140608AD140608B11406080B
:1001C000B5140608B9140608DFF844190022B2F580
:1001D000006F0CDA086810180844007A202804D14F
:1001E000086810180860012002E0521CEFE70020A8
:1001F0007047DFF81C190022B2F5006F12DA0868A8
:1002000010180844007A302805DB086810180844E4
:10021000007A7B2801DB521CEEE7086810180860A2
:10022000012000E00020704738B5DFF8E4480025E1
:10023000012D16DADFF8EC0E50F8250005F022F853
:1002400002002068204410F10801DFF8D80E50F8B1
:10025000250005F032F8002801D1012002E06D1CD4
:10026000E6E7002032BD10B5DFF8A848B1A12000B4
:1002700005F04AF8200005F005F80100200005F01F
:100280008FF8DFF8A41E200005F03EF8200004F0EF
:10029000F9FF0100200005F083F80121002004F09F
:1002A000FCFE10BD70B50400DFF86858DFF8606828
:1002B00086F80848DFF86018280005F025F82800BF
:1002C00004F0E0FF0100280005F06AF8DFF84C08B0
:1002D00096F9081850F82120DFF8F41E280005F0E0
:1002E00013F8280004F0CEFF0100280005F058F8AC
:1002F00070BD70B50400DFF81C58DFF8146896F97B
:100300000908002801D186F80948DFF80C182800F0
:1003100004F0FAFF280004F0B5FF0100280005F002
:100320003FF8DFF8FC0796F9091850F82120DFF8AC
:10033000A01E280004F0E8FF280004F0A3FF01003D
:10034000280005F02DF870BD38B50400DFF8C4575B
:100350002000C0B2FFF7A6FFDFF8C817280004F09E
:10036000D3FF280004F08EFF0100280005F018F8E4
:10037000DFF8B417280004F0C7FF280004F082FF5C
:100380000100280005F00CF8DFF8A017280004F0A1
:10039000BBFF280004F076FF0100280005F000F8FC
:1003A000DFF88C17280004F0AFFF280004F06AFF84
:1003B0000100280004F0F4FFDFF87817280004F0AB
:1003C000A3FF280004F05EFF0100280004F0E8FF0E
:1003D000DFF86417280004F097FF280004F052FFAC
:1003E0000100280004F0DCFFDFF85017280004F0BB
:1003F0008BFF280004F046FF0100280004F0D0FF26
:10040000DFF83C17280004F07FFF280004F03AFFD3
:100410000100280004F0C4FFDFF82817280004F0CA
:1004200073FF280004F02EFF0100280004F0B8FF3D
:10043000DFF81417280004F067FF280004F022FFFB
:100440000100280004F0ACFFDFF8FC1D280004F0D8
:100450005BFF280004F016FF0100280004F0A0FF55
:100460000121002004F019FE31BD70B50400DFF851
:10047000A466DFF8D8562000C0B2FFF713FF95ED51
:10048000010AB8EEC00AF2EE040A80EE200A10EE6D
:10049000100A04F0B5FF02000B00DFF8B4163000BC
:1004A00004F032FF300004F0EDFE0100300004F0F3
:1004B00077FF95ED000AB8EEC00AF2EE040A80EE6E
:1004C000200A10EE100A04F09BFF02000B00DFF878
:1004D0008416300004F018FF300004F0D3FE010051
:1004E000300004F05DFFAA68DFF86C16300004F0FD
:1004F0000BFF300004F0C6FE0100300004F050FF96
:10050000DFF85816300004F0FFFE300004F0BAFEA9
:100510000100300004F044FFDFF8AC1E300004F0AE
:10052000F3FE300004F0AEFE0100300004F038FFAE
:1005300070BD00000D0A000038B50400DFF8D45586
:100540002000C0B2FFF7AEFEDFF81416280004F05A
:10055000DBFE280004F096FE0100280004F020FFD6
:10056000DFF80016280004F0CFFE280004F08AFE11
:100570000100280004F014FFDFF8281B280004F015
:10058000C3FE280004F07EFE0100280004F008FFEE
:10059000DFF8141B280004F0B7FE280004F072FEF8
:1005A0000100280004F0FCFEDFF8001B280004F026
:1005B000ABFE280004F066FE0100280004F0F0FE07
:1005C000DFF8EC1A280004F09FFE280004F05AFE21
:1005D0000100280004F0E4FEDFF8501B280004F0BE
:1005E00093FE280004F04EFE0100280004F0D8FE1F
:1005F000DFF8D81D280004F087FE280004F042FE32
:100600000100280004F0CCFE31BD2DE9F047B0B068
:100610000400DFF80055DFF8346CDFF830152200F5
:10062000D2B24FF40070424301EB020010F1400AD5
:10063000DFF8FC7ADFF8FC1A2200D2B24FF4006037
:10064000424301EB0200B0F50068DFF8C4942000DB
:10065000C0B2FFF74EFE1521300005F04CFCD9F872
:100660000C08002802D1DFF8E82B07E0DFF8E40BE4
:10067000D9F80C1800EB810050F8042CDFF8B81AF8
:10068000280004F041FE280004F0FCFD01002800D1
:1006900004F086FEDAF80020DFF8381B280004F0AA
:1006A00033FE280004F0EEFD0100280004F078FE7F
:1006B000DFF8241B280004F027FE280004F0E2FDE8
:1006C0000100280004F06CFEDFF8101B280004F085
:1006D0001BFE280004F0D6FD0100280004F060FE97
:1006E0001521504605F007FC3868002802D1DFF8D4
:1006F000602B06E0DFF85C0B396800EB810050F8F6
:10070000042CDFF8541B280004F0FEFD280004F040
:10071000B9FD0100280004F043FE3879002802D119
:10072000DFF82C2B00E03A1DDFF8301B280004F026
:10073000EBFD280004F0A6FD0100280004F030FEC7
:10074000DFF8940C397C50F82120DFF8141B2800C6
:1007500004F0DAFD280004F095FD0100280004F003
:100760001FFEFA7BDFF8FC1A280004F0CDFD2800FC
:1007700004F088FD0100280004F012FEDFF8E81AFA
:10078000280004F0C1FD280004F07CFD01002800D1
:1007900004F006FEDFF8D41A280004F0B5FD2800A6
:1007A00004F070FD0100280004F0FAFDB8F8042000
:1007B000DFF8BC1A280004F0A7FD280004F062FD51
:1007C0000100280004F0ECFD404605F0E6FBD9F8F6
:1007D0001008002802D1DFF8782A07E0DFF8740A51
:1007E000D9F8101800EB810050F8042CDFF8841AB7
:1007F000280004F089FD280004F044FD01002800D1
:1008000004F0CEFDD9F8100800281AD020AAD9F893
:10081000100808EBC000D0E9000109F072F8DFF819
:10082000BC0B209950F82100219950F82130DFF8B5
:10083000B00B209950F82120DFF83C1A684604F0EC
:1008400063FDD9F81008002802D1DFF8042A00E07F
:100850006A46DFF8281A280004F056FD280004F044
:1008600011FD0100280004F09BFDDFF86C0B99F8E6
:10087000191850F82120DFF86C1B280004F044FD03
:10088000280004F0FFFC0100280004F089FD99F81D
:100890001828DFF8541B280004F036FD280004F067
:1008A000F1FC0100280004F07BFDDFF8401B28006C
:1008B00004F02AFD280004F0E5FC0100280004F003
:1008C0006FFDDFF82C1B280004F01EFD280004F04B
:1008D000D9FC0100280004F063FDDFF8181B280094
:1008E00004F012FD280004F0CDFC0100280004F003
:1008F00057FDDFF8041B280004F006FD280004F073
:10090000C1FC0100280004F04BFDDFF8F01A2800BC
:1009100004F0FAFC280004F0B5FC0100280004F003
:100920003FFDDFF8DC0ADFF8DC1A097850F82120F7
:10093000DFF8D41A280004F0E7FC280004F0A2FC39
:100940000100280004F02CFDDFF8C01A280004F094
:10095000DBFC280004F096FC0100280004F020FDD8
:10096000DFF8AC1A280004F0CFFC280004F08AFC61
:100970000100280004F014FDDFF8981A280004F0A4
:10098000C3FC280004F07EFC0100280004F008FDF0
:10099000DFF8841A280004F0B7FC280004F072FC89
:1009A0000100280004F0FCFCDFF8701A280004F0B5
:1009B000ABFC280004F066FC0100280004F0F0FC09
:1009C000DFF85C1A280004F09FFC280004F05AFCB1
:1009D0000100280004F0E4FCDFF8481A280004F0C5
:1009E00093FC280004F04EFC0100280004F0D8FC21
:1009F000DFF8341A280004F087FC280004F042FCD9
:100A00000100280004F0CCFCDFF8201A280004F0D4
:100A10007BFC280004F036FC0100280004F0C0FC38
:100A2000DFF80C1A280004F06FFC280004F02AFC00
:100A30000100280004F0B4FCDFF8F819280004F0E5
:100A400063FC280004F01EFC0100280004F0A8FC50
:100A5000DFF8E419280004F057FC280004F012FC29
:100A60000100280004F09CFCDFF8D019280004F0F5
:100A70004BFC280004F006FC0100280004F090FC68
:100A8000DFF8BC19280004F03FFC280004F0FAFB52
:100A90000100280004F084FCDFF82C19280004F081
:100AA00033FC280004F0EEFB0100280004F078FC81
:100AB00030B0BDE8F08738B50400164D2000C0B254
:100AC000FFF717FCDFF87C19280004F01DFC280054
:100AD00004F0D8FB0100280004F062FCDFF868197C
:100AE000280004F011FC280004F0CCFB01002800D1
:100AF00004F056FCDFF8D018280004F005FC2800AC
:100B000004F0C0FB0100280004F04AFC31BD0000E5
:100B100044B10220AC250220BC1206083C1400207F
:100B20006C14002048FF0508280B060858FF05082C
:100B300068FF05088CF6050878FF050888FF05089A
:100B400098FF0508A8FF0508B8FF0508189E0220B1
:100B500088E4050854DF0508A8E40508B4F605088C
:100B6000340B0608400B0608F8B50400DFF8DC5823
:100B7000DFF8D866DFF8D8782000C0B2FFF7B9FBFD
:100B8000DFF85C08DFF8CC18096850F82120DFF89E
:100B9000C818280004F0B8FB280004F073FB01001B
:100BA000280004F0FDFBDFF83408DFF8A818096816
:100BB00050F82100DFF8A418096850F82120DFF868
:100BC000A018280004F0A0FB280004F05BFB010043
:100BD000280004F0E5FBDFF82808DFF8881809682A
:100BE00050F82120DFF88018280004F08DFB280041
:100BF00004F048FB0100280004F0D2FBDFF8A01C41
:100C0000280004F081FB280004F03CFB01002800D0
:100C100004F0C6FBDFF88C0CDFF88C1C096850F878
:100C20002120DFF84818280004F06EFB280004F0AB
:100C300029FB0100280004F0B3FBDFF8341828007A
:100C400004F062FB280004F01DFB0100280004F002
:100C5000A7FBDFF8580CDFF8581C096850F8212072
:100C6000DFF81018280004F04FFB280004F00AFBFE
:100C70000100280004F094FBDFF8FC17280004F0C2
:100C800043FB280004F0FEFA0100280004F088FB72
:100C9000DFF8200C90ED000AB8EE400ADFEDEF0A15
:100CA00080EE200A10EE100A04F0AAFB02000B00EE
:100CB000DFF8041C280004F027FB280004F0E2FA07
:100CC0000100280004F06CFBDFF8F00B0268DFF88D
:100CD000F01B280004F018FB280004F0D3FA0100F0
:100CE000280004F05DFBDFF8DC0B0278DFF8D81B8E
:100CF000280004F009FB280004F0C4FA01002800D1
:100D000004F04EFBDFF8D006DFF8C01B097850F87E
:100D10002120DFF8BC1B280004F0F6FA280004F0BC
:100D2000B1FA0100280004F03BFBDFF8AC06DFF865
:100D3000B01C097850F82120DFF8981B280004F037
:100D4000E3FA280004F09EFA0100280004F028FBD2
:100D5000DFF8900C0278DFF8801B280004F0D4FA4A
:100D6000280004F08FFA0100280004F019FBDFF8D6
:100D7000780C0268DFF8641B280004F0C5FA28002C
:100D800004F080FA0100280004F00AFBDFF8580C98
:100D90004268DFF84C1B280004F0B6FA280004F083
:100DA00071FA0100280004F0FBFA3268DFF8341B06
:100DB000280004F0A9FA280004F064FA01002800D1
:100DC00004F0EEFADFF8241C280004F09DFA280055
:100DD00004F058FA0100280004F0E2FAD7F81408E9
:100DE000002802D1DFF8682407E0DFF86804D7F8AC
:100DF000141800EB810050F8042CDFF8F41B2800D5
:100E000004F082FA280004F03DFA0100280004F002
:100E1000C7FADFF8CC05DFF83C16096850F8212046
:100E2000DFF8D01B280004F06FFA280004F02AFA3B
:100E30000100280004F0B4FADFF8A005DFF814166A
:100E4000096850F82100DFF81416096850F82120CD
:100E5000DFF8A41B280004F057FA280004F012FA67
:100E60000100280004F09CFADFF89405DFF8F4157F
:100E7000096850F82120DFF8841B280004F044FAA8
:100E8000280004F0FFF90100280004F089FADFF8D7
:100E90007C15280004F038FA280004F0F3F901006A
:100EA000280004F07DFADFF8FC09DFF8FC19096876
:100EB00050F82120DFF8481B280004F025FA28000C
:100EC00004F0E0F90100280004F06AFADFF8341BAE
:100ED000280004F019FA280004F0D4F901002800D1
:100EE00004F05EFADFF8C409DFF8C419096850F8A5
:100EF0002120DFF8141B280004F006FA280004F073
:100F0000C1F90100280004F04BFADFF8001B2800AB
:100F100004F0FAF9280004F0B5F90100280004F003
:100F20003FFADFF8900990ED000AB8EE400ADFEDD5
:100F30004B0A80EE200A10EE100A04F061FA02005B
:100F40000B00DFF8CC1A280004F0DEF9280004F0CA
:100F500099F90100280004F023FADFF8600902681B
:100F6000DFF8B01A280004F0CFF9280004F08AF95D
:100F70000100280004F014FADFF848090278DFF8CD
:100F8000981A280004F0C0F9280004F07BF9010049
:100F9000280004F005FADFF84004DFF8301909787A
:100FA00050F82120DFF8741A280004F0ADF9280069
:100FB00004F068F90100280004F0F2F9DFF81804E1
:100FC000DFF81C1A097850F82120DFF8541A28009D
:100FD00004F09AF9280004F055F90100280004F003
:100FE000DFF9DFF8000A0278DFF8381A280004F089
:100FF0008BF9280004F046F90100280004F0D0F92C
:10100000DFF8E4090268DFF8641C280004F07CF9CA
:10101000280004F037F90100280004F0C1F9DFF8D6
:10102000C8094268DFF8481C280004F06DF9280060
:1010300004F028F90100280004F0B2F9DFF8341CAC
:10104000280004F061F9280004F01CF901002800D0
:1010500004F0A6F9DFF8201C02E000BF00007A448B
:10106000280004F051F9280004F00CF901002800D0
:1010700004F096F9DFF8041C280004F045F9280074
:1010800004F000F90100280004F08AF9CE49280094
:1010900004F03AF9280004F0F5F80100280004F003
:1010A0007FF9F1BD4C0B0608580B0608D8FF050860
:1010B000E8FF050870B50400E44DDFF8546D20002A
:1010C000C0B2FFF716F9DFF8B80D317D50F82120D6
:1010D000DFF8AC1B280004F017F9280004F0D2F860
:1010E0000100280004F05CF9DFF8940D717D50F8E0
:1010F0002120DFF8901B280004F006F9280004F0F6
:10110000C1F80100280004F04BF9AF49280004F0B1
:10111000FBF8280004F0B6F80100280004F040F9BC
:1011200070BD000038140020100B0608F8FF0508F9
:10113000F0A8022068D90120ACEA050870B50400C7
:10114000C24DDFF8CC6C2000C0B2FFF7ABF8D6F888
:10115000402ADFF8241C280004F0D6F8280004F008
:1011600091F80100280004F01BF9DFF8100C96F844
:10117000481A50F82120DFF8081C280004F0C4F8B1
:10118000280004F07FF80100280004F009F996F81F
:10119000480A002801D18EA200E08EA2D6F8443A77
:1011A000DFF8E01B280004F0AFF8280004F06AF82C
:1011B0000100280004F0F4F88349280004F0A4F8A2
:1011C000280004F05FF80100280004F0E9F870BD81
:1011D0001C0B0608C8E4050874F00508E8E40508D7
:1011E00070B50400994DDFF8286C2000C0B2FFF7FD
:1011F00059F8DFF8201C280004F086F8280004F0D5
:1012000041F80100280004F0CBF8DFF8740C96F8E0
:101210004D1A50F82120DFF8001C280004F074F863
:10122000280004F02FF80100280004F0B9F86649FE
:10123000280004F069F8280004F024F801002800D0
:1012400004F0AEF870BD0000A0F60508389E02203C
:10125000A412060870DF022098D90508C0D9050835
:1012600078D3050814D70508E8D9050818D5050866
:1012700008E5050828E50508C4120608C8F60508AB
:1012800070B50400714DDFF8886B2000C0B2FFF725
:1012900009F8DFF8F00B96F8721A50F82120DFF801
:1012A000E81B280004F030F8280003F0EBFF0100F1
:1012B000280004F075F8524896F86C1A50F821206E
:1012C000DFF8C81B280004F01FF8280003F0DAFF3D
:1012D0000100280004F064F8494896F86D1A50F8A7
:1012E0002120DFF8AC1B280004F00EF8280003F0E2
:1012F000C9FF0100280004F053F8DFF8A415280006
:1013000004F002F8280003F0BDFF0100280004F0FB
:1013100047F8DFF86C0B96F8501A50F82120DFF8E8
:10132000741B280003F0F0FF280003F0ABFF01005E
:10133000280004F035F8D6F8542ADFF85C1B2800A2
:1013400003F0E2FF280003F09DFF0100280004F0F5
:1013500027F8D6F8582ADFF8F41B280003F0D4FF4A
:10136000280003F08FFF0100280004F019F8DFF8CF
:10137000100B96F85C1A50F82120DFF8D41B2800D7
:1013800003F0C2FF280003F07DFF0100280004F0F5
:1013900007F8D6F8602ADFF8BC1B280003F0B4FF7A
:1013A000280003F06FFF0100280003F0F9FF064951
:1013B000280003F0A9FF280003F064FF01002800C3
:1013C00003F0EEFF70BD00BFC8FF0508C8FF0508A9
:1013D000536563004D696E00BC0000208C00002046
:1013E0000C00002040D7050878DF050848E505080F
:1013F00048D505086CD7050810DA050868E5050822
:10140000FC0000209416002078D50508ECCC0508D7
:1014100004CF0508E4D0050824D1050874CE0508DA
:10142000BCCE050890CF050864D1050820D2050878
:101430005CD20508D4CF050818D00508A4D105084A
:10144000D4D2050888E50508A8E50508AC250220E2
:1014500044B1022030F702209CDF050834F7022057
:10146000C0DF0508EC13002038DA0508E4DF0508C2
:1014700008E0050860DA05088CF0050870B504007E
:10148000DFF8106DDFF888592000C0B2FEF70AFFC0
:10149000DFF8EC0995F8741A50F82120DFF8B81A33
:1014A000300003F031FF300003F0ECFE01003000AB
:1014B00003F076FFDFF8C80995F8751A50F8212077
:1014C000DFF8981A300003F01FFF300003F0DAFE57
:1014D0000100300003F064FFDFF8A40995F8761AE4
:1014E00050F82120DFF8781A300003F00DFF3000AB
:1014F00003F0C8FE0100300003F052FFDFF880095E
:1015000095F8771A50F82120DFF8581A300003F0C8
:10151000FBFE300003F0B6FE0100300003F040FF98
:10152000DFF85C0995F8781A50F82120DFF8381AAE
:10153000300003F0E9FE300003F0A4FE01003000AB
:1015400003F02EFFD5F87C0A00EE100AB8EE400A30
:10155000F2EE040A80EE200A10EE100A03F050FFAB
:1015600002000B00DFF8041A300003F0CDFE30005B
:1015700003F088FE0100300003F012FFD5F8800A66
:1015800000EE100AB8EE400AF2EE040A80EE200ADD
:1015900010EE100A03F034FF02000B00DFF8D01940
:1015A000300003F0B1FE300003F06CFE01003000AB
:1015B00003F0F6FED5F8840A00EE100AB8EE400AF1
:1015C000F2EE040A80EE200A10EE100A03F018FF73
:1015D00002000B00DFF89C19300003F095FE30008C
:1015E00003F050FE0100300003F0DAFED5F8880A5F
:1015F00000EE100AB8EE400AF2EE040A80EE200A6D
:1016000010EE100A03F0FCFE02000B00DFF8681970
:10161000300003F079FE300003F034FE01003000AA
:1016200003F0BEFED5F88C0A00EE100AB8EE400AB0
:10163000F2EE040A80EE200A10EE100A03F0E0FE3B
:1016400002000B00DFF83419300003F05DFE3000BB
:1016500003F018FE0100300003F0A2FEDFF82008BE
:1016600095F8901A50F82120DFF81419300003F093
:101670004BFE300003F006FE0100300003F090FE48
:10168000DFF8FC0795F8911A50F82120DFF8F418DC
:10169000300003F039FE300003F0F4FD01003000AB
:1016A00003F07EFEDFF8D80795F8921A50F8212053
:1016B000DFF8D418300003F027FE300003F0E2FD1D
:1016C0000100300003F06CFEDFF8B40795F8931AC0
:1016D00050F82120DFF8B418300003F015FE300078
:1016E00003F0D0FD0100300003F05AFED5F8940A53
:1016F00000EE100AB8EE400AF2EE040A80EE200A6C
:1017000010EE100A03F07CFE02000B00DFF88018D8
:10171000300003F0F9FD300003F0B4FD01003000AB
:1017200003F03EFED5F8980A00EE100AB8EE400A23
:10173000F2EE040A80EE200A10EE100A03F060FEBA
:1017400002000B00DFF84C18300003F0DDFD300024
:1017500003F098FD0100300003F022FED5F89C0A4A
:1017600000EE100AB8EE400AF2EE040A80EE200AFB
:1017700010EE100A03F044FE02000B00DFF8181808
:10178000300003F0C1FD300003F07CFD01003000AB
:1017900003F006FED5F8A00A00EE100AB8EE400AE3
:1017A000F2EE040A80EE200A10EE100A03F028FE82
:1017B00002000B00DFF8E417300003F0A5FD300055
:1017C00003F060FD0100300003F0EAFDDFF8B00631
:1017D00095F8A41A50F82120DFF8C417300003F060
:1017E00093FD300003F04EFD0100300003F0D8FD02
:1017F000DFF88C0695F8A51A50F82120DFF8A41719
:10180000300003F081FD300003F03CFD01003000AA
:1018100003F0C6FDD5F8A80A00EE100AB8EE400A9B
:10182000F2EE040A80EE200A10EE100A03F0E8FD42
:1018300002000B00DFF87017300003F065FD300088
:1018400003F020FD0100300003F0AAFDD5F8AC0A3A
:1018500000EE100AB8EE400AF2EE040A80EE200A0A
:1018600010EE100A03F0CCFD02000B00DFF83C176D
:10187000300003F049FD300003F004FD01003000AA
:1018800003F08EFDDFF82817300003F03DFD300037
:1018900003F0F8FC0100300003F082FD70BD000091
:1018A000DCCD05081C01002038F7022028010020AB
:1018B0003CF70220F013002098D70508F41300200D
:1018C00088DA0508951600202CE0050896160020F9
:1018D000ACD30508E0D30508B0DA050814D4050830
:1018E000A8D50508D8DA050838B50400DFF8A458EB
:1018F0002000C0B2FEF7D6FCDFF8B8060278DFF8A9
:10190000B816280003F000FD280003F0BBFC01001E
:10191000280003F045FDDFF8A4060278DFF8A016E2
:10192000280003F0F1FC280003F0ACFC01002800C3
:1019300003F036FDDFF88C060278DFF88C162800FD
:1019400003F0E2FC280003F09DFC0100280003F0F6
:1019500027FDDFF878060278DFF87416280003F018
:10196000D3FC280003F08EFC0100280003F018FDD2
:10197000DFF860060278DFF86016280003F0C4FC88
:10198000280003F07FFC0100280003F009FDDFF8C8
:101990004C060278DFF84816280003F0B5FC280052
:1019A00003F070FC0100280003F0FAFCDFF83416A5
:1019B000280003F0A9FC280003F064FC01002800C3
:1019C00003F0EEFCDFF8E815280003F09DFC28008A
:1019D00003F058FC0100280003F0E2FC31BD0000D8
:1019E0007AF902207BF902209CF60220C8EA050859
:1019F00050E0050800DB050874E0050828DB050851
:101A000098E00508BCE0050850DB0508A4F00508CF
:101A1000D8D5050878DB0508A0DB050848D40508FB
:101A20007CD40508C4D7050870B50400DFF86467E6
:101A3000DFF8DC532000C0B2FEF734FCDFF84004CE
:101A400095F8B01A50F82120DFF89C15300003F00B
:101A50005BFC300003F016FC0100300003F0A0FC3A
:101A6000D5F8B40A00EE100AB8EE400AF2EE040A05
:101A700080EE200A10EE100A03F0C2FC02000B00F8
:101A8000DFF86815300003F03FFC300003F0FAFB8C
:101A90000100300003F084FCDFF8E40395F8B81A85
:101AA00050F82120DFF84815300003F02DFC3000FD
:101AB00003F0E8FB0100300003F072FC95F8B92A4E
:101AC000DFF83015300003F01FFC300003F0DAFBC4
:101AD0000100300003F064FC95F8BA2ADFF818150D
:101AE000300003F011FC300003F0CCFB01003000AB
:101AF00003F056FC95F8BB2ADFF80015300003F020
:101B000003FC300003F0BEFB0100300003F048FC92
:101B1000DB4895F8BC1A50F82120DFF8E4143000B7
:101B200003F0F2FB300003F0ADFB0100300003F0E6
:101B300037FC95F8BD2ADFF8CC14300003F0E4FB45
:101B4000300003F09FFB0100300003F029FC95F802
:101B5000BE2ADFF8B414300003F0D6FB300003F0E7
:101B600091FB0100300003F01BFC95F8BF2ADFF861
:101B70009C14300003F0C8FB300003F083FB01002D
:101B8000300003F00DFCBE4895F8C31A50F8212030
:101B9000DFF87C14300003F0B7FB300003F072FB79
:101BA0000100300003F0FCFBB54895F8C41A50F86A
:101BB0002120DFF86014300003F0A6FB300003F0B2
:101BC00061FB0100300003F0EBFBAD4895F8C01A53
:101BD00050F82120DFF84014300003F095FB30006E
:101BE00003F050FB0100300003F0DAFB95F8C12A46
:101BF000DFF82814300003F087FB300003F042FBCD
:101C00000100300003F0CCFB95F8C22ADFF8101475
:101C1000300003F079FB300003F034FB01003000AA
:101C200003F0BEFBDFF8FC13300003F06DFB300067
:101C300003F028FB0100300003F0B2FBDFF8E813EB
:101C4000300003F061FB300003F01CFB01003000AA
:101C500003F0A6FBD649300003F056FB300003F03A
:101C600011FB0100300003F09BFB70BDB0D40508F0
:101C700008D60508C8DB0508E0E0050804E105080A
:101C8000E4EA0508C8E50508F8B50500DFF80465CD
:101C9000DFF898732800C0B2FEF704FBDFF890135A
:101CA000300003F031FB300003F0ECFA01003000AB
:101CB00003F076FBDFF87C13300003F025FB3000E7
:101CC00003F0E0FA0100300003F06AFBDA4930006B
:101CD00003F01AFB300003F0D5FA0100300003F0E6
:101CE0005FFBD649300003F00FFB300003F0CAFA67
:101CF0000100300003F054FBD149300003F004FB35
:101D0000300003F0BFFA0100300003F049FB15205A
:101D100009F0C0F8386800280BD1CA49300003F038
:101D2000F3FA300003F0AEFA0100300003F038FBA4
:101D300016E0002004003868844211D2DFF8200D3C
:101D400050F82430621CC049300003F0DDFA300046
:101D500003F098FA0100300003F022FB641CEAE76C
:101D6000BA49300003F0D0FA300003F08BFA0100DA
:101D7000300003F015FBF1BDBCF00508C4000020E5
:101D8000D4F00508E8E5050838B50400DFF8045488
:101D90002000C0B2FEF786FAAD49280003F0B4FA7D
:101DA000280003F06FFA0100280003F0F9FAA94AAD
:101DB000A949280003F0A8FA280003F063FA0100FB
:101DC000280003F0EDFAA54AA549280003F09CFA83
:101DD000280003F057FA0100280003F0E1FAA14AB5
:101DE000A149280003F090FA280003F04BFA010003
:101DF000280003F0D5FA6E49280003F085FA280080
:101E000003F040FA0100280003F0CAFA31BD0000D7
:101E1000189E0220ECF0050800EB050870B50400E0
:101E2000DFF87053914E2000C0B2FEF73BFA144821
:101E300096F81C1850F821208D49280003F064FA08
:101E4000280003F01FFA0100280003F0A9FAD6F8D1
:101E500020288849280003F057FA280003F012FAD6
:101E60000100280003F09CFA8349280003F04CFA93
:101E7000280003F007FA0100280003F091FA70BD72
:101E8000B4000020DC00002004F105081CEB05086C
:101E900038EB050808E60508F0D7050870B504001A
:101EA000DFF8185D714EFEF78FF900284DD0012C38
:101EB00006D04AD3032C29D015D3042C31D044E0CA
:101EC000FEF797F901280DD130683044083009F049
:101ED00016F953EC102B0020684909F01DF909F0A0
:101EE000F1F9686031E0FEF784F901280DD130681E
:101EF0003044083009F003F953EC102B00205F49FF
:101F000009F00AF909F0DEF928601EE0FEF771F920
:101F1000012805D130683044083009F08FFAA860F4
:101F200013E0FEF766F901280FD15548406803F029
:101F3000A9F902005248416830683044083003F083
:101F4000BCF9002801D109F0CCFB70BD1CD80508F4
:101F5000F0DB050848D8050828E6050848E6050826
:101F600068E6050888E60508A8E6050818DC0508FF
:101F700040DC050868DC050890DC0508B8DC0508CD
:101F800028E105084CE1050870E1050894E1050821
:101F9000E0DC050808DD050830DD050858DD05082A
:101FA000B8E10508DCE1050880DD0508A8DD0508C5
:101FB000C8FF050874F902200800060875F9022018
:101FC0001800060876F902202800060877F9022092
:101FD0003800060878F90220DCF6050879F90220B5
:101FE000F0F6050804F7050854EB0508C8E60508EF
:101FF00070EB0508E8E6050800E2050824E205089C
:1020000008E7050848E205086CE2050890E20508C3
:10201000D0DD05088CEB050828E70508B4E20508C3
:1020200048E705081CF10508A8EB0508543801200D
:1020300068E7050834F1050888E705084CF105084C
:10204000A8E7050864F10508640B0608E4D4050850
:102050007CF105087C0B0608700B0608940B06083B
:10206000880B0608CC1206084800060844B1022076
:10207000C8E70508F8DD050874D805080000244005
:10208000BC0000202DE9F14F9EB0DFF8005D414E0D
:10209000DFF8FC0C0390DFF8240B95F909184FF4D6
:1020A000007211FB02F1084410F1400BDFF8E47CF0
:1020B000DFF8E48CDFF8E40C95F909184FF40062BE
:1020C00011FB02F10844B0F5006ADFF8D40C04906B
:1020D000DFF8D00C02905FF0010995F80908401E66
:1020E00088F803001E98012856D0C0F016870328F0
:1020F00000F02981C0F0C080052800F0F781C0F011
:102100006681072800F0AE82C0F06682092800F0E0
:10211000FB82C0F0D5820B2800F06683C0F04783B5
:102120000D2800F04B84C0F0CE830F2800F09E8471
:10213000C0F07484112800F01185C0F0E0841328E9
:1021400000F0D685C0F03C85152800F02F86C0F041
:102150000786172800F02A86C0F02886192800F084
:102160002586C0F023861B2800F0BC86C0F061865F
:102170001D2800F0B786C0F0B5861F2800F0B28693
:10218000C0F0B086212800F0AD86C0F0AB8600F02C
:10219000C4BE00BFAC250220DFF80C1C300003F0E9
:1021A000B3F8300003F06EF80100300003F0F8F8E7
:1021B000FEF70AF8002830D1286800282DD10398AE
:1021C000006800281CD01521039803F094FE00201D
:1021D00004000398006884424AD2DFF8840850F86B
:1021E0002430621CDFF83C1D300003F08DF8300015
:1021F00003F048F80100300003F0D2F8641CE8E76F
:10220000DFF8241D300003F07FF8300003F03AF8C7
:102210000100300003F0C4F82AE0FDF7EAFF0128CE
:1022200026D128682844083009F008F9C5F80C08B8
:1022300003980068D5F80C18884203D20020C5F82E
:102240000C0815E0DFF81808D5F80C1800EB810031
:1022500050F8043CD5F80C28DFF8C81C300003F017
:1022600053F8300003F00EF80100300003F098F846
:102270000020814600F051BEFDF7BBFF01285ED172
:102280000398006800285AD0D5F80C08002856D0CA
:10229000DFF8980C406802F0F5FF0200DFF88C0CC4
:1022A000416828682844083003F007F8002846D120
:1022B000D5F80C18491E95F80908401E40B20AF0DE
:1022C000AFFB002808D07FF00201401A2BD0401E3F
:1022D0001CD0401E0DD032E0DFF8541C300003F05B
:1022E00013F8300002F0CEFF0100300003F058F880
:1022F00025E0DFF8341D300003F006F8300002F06E
:10230000C1FF0100300003F04BF818E0DFF8241C97
:10231000300002F0F9FF300002F0B4FF010030009D
:1023200003F03EF80BE0DFF8101C300002F0ECFF89
:10233000300002F0A7FF0100300003F031F8002068
:10234000814600F0EABDDFF8F41B300002F0DCFF4C
:10235000300002F097FF0100300003F021F8FDF794
:1023600033FF00282FD1286800282CD1DBF800008B
:1023700000281CD01521584603F0BDFD00200400A4
:10238000DBF8000084421ED2DFF8D40650F8243077
:10239000621CDFF8901B300002F0B6FF300002F044
:1023A00071FF0100300002F0FBFF641CE8E7DFF87A
:1023B000781B300002F0A8FF300002F063FF01003C
:1023C000300002F0EDFF0020814600F0A6BDFDF7D1
:1023D000FBFE00283CD12868002839D1DFF84C1CCE
:1023E000300002F091FF300002F04CFF010030009D
:1023F00002F0D6FFDBF8000000281CD0152158465B
:1024000003F079FD00200400DBF80000844269D26B
:10241000DFF84C0650F82430621CDFF8081B30004F
:1024200002F072FF300002F02DFF0100300002F0D8
:10243000B7FF641CE8E7DFF8F01A300002F064FF31
:10244000300002F01FFF0100300002F0A9FF49E058
:10245000FDF7CFFE012845D128682844083008F050
:10246000EDFF0190DBF800000199884202D20020C4
:10247000019037E000220199491E95F80908401E95
:1024800040B20AF097F9002806D07FF00201401A06
:102490001CD0801E0DD025E0DFF8941B300002F028
:1024A00033FF300002F0EEFE0100300002F078FF52
:1024B00018E0DFF8741B300002F026FF300002F055
:1024C000E1FE0100300002F06BFF0BE0DFF8641B5F
:1024D000300002F019FF300002F0D4FE010030009D
:1024E00002F05EFF0020814600F017BDDFF8481BB8
:1024F000300002F009FF300002F0C4FE010030009D
:1025000002F04EFFFDF760FE002830D12868002859
:102510002DD1DBF8000000281CD01521584603F00F
:10252000EAFC00200400DBF80000844250D2DFF80F
:10253000300550F82430621CDFF8E819300002F052
:10254000E3FE300002F09EFE0100300002F028FFA2
:10255000641CE8E7DFF8D019300002F0D5FE300047
:1025600002F090FE0100300002F01AFF30E0FDF7AB
:1025700040FE01282CD114200690002005900097E1
:10258000059A069900980DF06BFF0098286828447A
:10259000083008F053FF3860DBF8000039688842E3
:1025A00002D20020386013E0DFF8B404396800EB91
:1025B000810050F8043C3A68DFF86819300002F0F6
:1025C000A3FE300002F05EFE0100300002F0E8FEE3
:1025D0000020814600F0A1BCFDF70BFE01283FD191
:1025E000386800283CD00EAA38680BEBC000D0E950
:1025F0003C0107F086F90B200A9000200990381D55
:102600000090099A0A9900980DF02AFF00981498F2
:1026100008902868284408300790381D0090089AD0
:10262000079900980DF050FF0098381D08F006FF3C
:102630000190149ADFF8041A0BA802F065FE0B2033
:10264000069000200590381D0090059A0699009884
:102650000DF006FF0098019A0BA9381D02F054FEF8
:1026600000F05BBCFDF7C5FD012827D138680028C4
:1026700024D0DFF8B808406802F004FE0200DFF85A
:10268000AC08416828682844083002F016FE00288B
:1026900002D10120387411E0DFF89008006802F0E0
:1026A000F1FD0200DFF8840801682868284408303A
:1026B00002F003FE002801D10020387400F02DBC88
:1026C000FDF797FD01281DD1386800281AD0286829
:1026D0002844083008F0B2FE01900198B0F5807FE0
:1026E0000EDBDFF85C19300002F00EFE300002F065
:1026F000C9FD0100300002F053FE0020814601E0D8
:102700000198F87300F009BCFDF773FD01284BD167
:102710003868002848D0DFF81408406802F0B2FD9D
:102720000200DFF80808416828682844083002F0F1
:10273000C4FD002838D10020009000235A46396893
:10274000491E98F903000BF067F8002806D07FF0C7
:102750000101401A1CD0401E0DD025E0DFF8E4181E
:10276000300002F0D1FD300002F08CFD010030009D
:1027700002F016FE18E0DFF8B018300002F0C4FDD9
:10278000300002F07FFD0100300002F009FE0BE096
:10279000DFF8B418300002F0B7FD300002F072FD2F
:1027A0000100300002F0FCFD00208146B5E3FDF79A
:1027B00020FD012815D13868002812D0DFF86C07F9
:1027C000406802F05FFD0200DFF86007416828689A
:1027D0002844083002F071FD002802D1142002992B
:1027E000C8800020814698E3DFF86018300002F0CE
:1027F0008BFD300002F046FD0100300002F0D0FDFC
:10280000FDF7E2FC00282ED1286800282BD1BAF869
:10281000040000281AD0504603F0BFFB002004003B
:10282000BAF8040084424BDA8D4850F82430621C18
:10283000DFF8F016300002F067FD300002F022FDF4
:102840000100300002F0ACFD641CE9E7DFF800187D
:10285000300002F059FD300002F014FD010030009C
:1028600002F09EFD2CE0FDF7C4FC012828D1286869
:102870002844083008F0E2FD88F80200BAF80400A5
:1028800098F90210884203DA002088F8020017E065
:10289000142002990880724898F9021000EB810018
:1028A00050F8043C98F90220DFF87816300002F066
:1028B0002BFD300002F0E6FC0100300002F070FD5C
:1028C0000020814629E3DFF88C17300002F01CFD60
:1028D000300002F0D7FC0100300002F061FDFDF78E
:1028E00073FC00282ED1286800282BD1BAF80400E8
:1028F00000281AD0504603F050FB00200400BAF81C
:102900000400844257DA564850F82430621CDFF83D
:102910001416300002F0F8FC300002F0B3FC0100A5
:10292000300002F03DFD641CE9E7DFF824173000B9
:1029300002F0EAFC300002F0A5FC0100300002F0D9
:102940002FFD38E0FDF755FC012834D128682844D4
:10295000083008F073FDC5F81008BAF80400D5F87F
:102960001018884203D20020C5F8100823E00EAAF0
:10297000D5F810080AEBC000D0E9000106F0C1FF4D
:10298000179885F81908189885F818083448D5F864
:10299000101800EB810050F8043CD5F81028DFF83F
:1029A0008415300002F0B0FC300002F06BFC010036
:1029B000300002F0F5FC00208146AEE2FDF719FC84
:1029C00001282AD1D5F81008002826D0DFF85C05A8
:1029D000406802F057FC0200DFF8500541682868A3
:1029E0002844083002F069FC002803D1012085F852
:1029F000190812E0DFF83405006802F043FC020019
:102A0000DFF82805016828682844083002F055FCE2
:102A1000002802D1002085F819087EE2FDF7E9FBC5
:102A2000012822D1D5F8100800281ED02868284493
:102A3000083008F003FD01900198B0F5807F11DBAC
:102A4000DFF8FC15300002F05FFC300002F01AFCE9
:102A50000100300002F0A4FC0020814605E000BF28
:102A600070DF0220019885F8180856E2FDF7C1FBD7
:102A7000012841D1D5F8100800283DD0DFF8AC047A
:102A8000406802F0FFFB0200DFF8A00441682868FC
:102A90002844083002F011FC00282DD1D5F8100888
:102AA000401EC0B2009095F8183895F81928514684
:102AB00098F80300C0B20BF0E3F8002803D0B0F19F
:102AC000FF3F0DD018E0DFF89015300002F01CFC3D
:102AD000300002F0D7FB0100300002F061FC0BE097
:102AE000DFF84415300002F00FFC300002F0CAFBA2
:102AF0000100300002F054FC002081460DE2FDF799
:102B000078FB012827D10298B0F90800002822D1CB
:102B1000DFF81804406802F0B5FB0200DFF80C048F
:102B2000416828682844083002F0C7FB002812D109
:102B3000DFF82815300002F0E7FB300002F0A2FBBE
:102B40000100300002F02CFC0020049981F84C00B8
:102B500014200299088100208146DEE1FDF749FB3F
:102B6000012827D10298B0F90800002822D1DFF807
:102B7000BC03406802F086FB0200DFF8B003416846
:102B800028682844083002F098FB002812D1DFF8AA
:102B9000D014300002F0B8FB300002F073FB0100EB
:102BA000300002F0FDFB0120049981F84C00142054
:102BB0000299088100208146AFE100BF189E0220E3
:102BC000DFF8A014300002F09FFB300002F05AFB47
:102BD0000100300002F0E4FBFDF7F6FA00282ED1E8
:102BE000286800282BD1BAF8040000281AD05046D3
:102BF00003F0D3F900200400BAF80400844274DA28
:102C0000DFF8200D50F82430621CC649300002F075
:102C10007BFB300002F036FB0100300002F0C0FB0D
:102C2000641CE9E7DFF82814300002F06DFB300087
:102C300002F028FB0100300002F0B2FB55E0FDF786
:102C4000D8FA012851D128682844083008F0F6FB4A
:102C5000C5F81008BAF80400D5F81018884203D255
:102C60000020C5F8100840E0D5F81008421ED2B286
:102C7000514698F80300C0B20AF0E8F8002803D0E3
:102C8000B0F1FF3F0DD018E0DFF8DC13300002F0A8
:102C90003BFB300002F0F6FA0100300002F080FB4E
:102CA0000BE0DFF88413300002F02EFB300002F05E
:102CB000E9FA0100300002F073FBDFF8680CD5F888
:102CC000101800EB810050F8043CD5F81028954905
:102CD000300002F019FB300002F0D4FA010030009D
:102CE00002F05EFB0020C5F810080020814614E1C8
:102CF000FDF77FFA012830D18C48406802F0C2FA13
:102D000002008A48416828682844083002F0D5FA51
:102D1000002822D1514698F80300C0B20AF0FEFB09
:102D2000002803D0B0F1FF3F0CD016E0CF493000AF
:102D300002F0EAFA300002F0A5FA0100300002F0D9
:102D40002FFB0AE0B849300002F0DEFA300002F052
:102D500099FA0100300002F023FB00208146DCE0FC
:102D6000FDF747FA012810D128682844083008F0F8
:102D700065FB01900198092804DA0198401EBC49BE
:102D8000087002E00120BA490870C6E044B1022090
:102D9000389E0220F0A80220E0A8022068D9012075
:102DA0008C5401201ED9012094F10508FDF721FA69
:102DB00001283BD10B200A900020099018F1050052
:102DC0000090099A0A9900980DF04AFB0098032098
:102DD0000890286828440830079018F105000090F2
:102DE000089A079900980DF06FFB009818F10500FC
:102DF00008F024FB01900B2006900020059018F1AC
:102E000005000090059A069900980DF029FB00989E
:102E100001A80278974918F1050002F075FA1E988A
:102E2000153888F804001420029948800020814653
:102E300073E0FDF7DEF9012851D10B200890002046
:102E4000079018F105000090079A089900980DF076
:102E500007FB00980A2006903020059018F1050025
:102E60000090059A069900980DF0FAFA00982868E3
:102E70002844083002F006FA0B280FD30A200690E7
:102E8000286828440830059018F105000090069A3B
:102E9000059900980DF018FB00981AE0286828445E
:102EA000083002F0EFF9009028682844083002F05A
:102EB000E9F90099069129682944083105914042B1
:102EC00040440F300090069A059900980DF0FCFAE6
:102ED0000098052088F804001420029948800020FA
:102EE00081461AE0FDF785F9012814D10F484068A2
:102EF00002F0C8F902000D484168286828440830EB
:102F000002F0DBF9002806D11E981B3888F804006F
:102F1000142002998880002081464846C0B21FB024
:102F2000BDE8F08F5800060868000608BC000020C5
:102F30007800060818F70508C4EB050874F00508C2
:102F400070B50400DFF84C5D4B4E2000012802D024
:102F5000022834D066E0FDF74CF901282ED1DFF8C5
:102F6000380D406802F08EF90200DFF82C0D416840
:102F700028682844083002F0A0F900281ED10AF081
:102F800061FB002803D0B0F1FF3F0CD016E03B49B5
:102F9000300002F0B9F9300002F074F9010030009D
:102FA00002F0FEF90AE02049300002F0ADF93000ED
:102FB00002F068F90100300002F0F2F932E0FDF7AA
:102FC00018F901282ED1DFF8D00C406802F05AF928
:102FD0000200DFF8C40C416828682844083002F079
:102FE0006CF900281ED10AF071FB002803D0B0F163
:102FF000FF3F0CD016E02249300002F085F9300086
:1030000002F040F90100300002F0CAF90AE0064976
:10301000300002F079F9300002F034F9010030009C
:1030200002F0BEF9002070BDACF10508C4F105083E
:103030002CF7050840F70508D8E20508D412060861
:10304000E0EB05088800060854F70508FCEB0508C6
:10305000A00B060818EC0508AC0B060820DE0508D6
:1030600048DE0508E8E705089800060868F705083F
:1030700094160020DC120608AC25022034EC05086A
:1030800050EC05082DE9F04794B08246DFF8504C2B
:10309000DFF8505CDFF8FC6B5FF00109BAF1010F5B
:1030A00060D0C0F01686BAF1030F00F02B81C0F09B
:1030B000B680BAF1050F00F05981C0F03D81BAF138
:1030C000070F00F08C81C0F06B81BAF1090F00F09E
:1030D000B081C0F09981BAF10B0F00F00782C0F007
:1030E000D781BAF10D0F00F03782C0F01382BAF128
:1030F0000F0F00F0AB82C0F05182BAF1110F31D046
:10310000C0F05283BAF1130F00F0FC80C0F087804A
:10311000BAF1150F00F02A81C0F00E81BAF1170F35
:1031200000F05D81C0F03C81BAF1190F00F081819F
:10313000C0F06A81BAF11B0F00F0D881C0F0A881FD
:10314000BAF11D0F00F00882C0F0E481BAF11F0F40
:1031500000F00884C0F09783BAF1200F00F080855A
:1031600000F0B7BD5246DFF8401C200002F0CCF85A
:10317000200002F087F80100200002F011F9FDF7AD
:1031800023F8002819D13068002816D10020070044
:103190000A2F40DADFF8C00C50F827307A1CDFF82D
:1031A000BC1C200002F0B0F8200002F06BF8010017
:1031B000200002F0F5F87F1CEAE7FDF71AF8012875
:1031C00029D130683044083008F038F9401EDFF863
:1031D000901C0860DFF8880C00680B2804D30020DE
:1031E000DFF87C1C086016E0DFF86C0CDFF8701C60
:1031F000096850F82130DFF8680C0268521CDFF8CB
:103200005C1C200002F080F8200002F03BF8010076
:10321000200002F0C5F80020814600F05ABD524659
:10322000DFF8401C200002F06FF8200002F02AF8BE
:103230000100200002F0B4F8FCF7C6FF002824D1FA
:103240003068002821D100200700DFF81C0CDFF8CF
:10325000101C0968405C874250DADFF8100CDFF878
:10326000001C096850F8210050F827307A1CDFF85C
:10327000EC1B200002F048F8200002F003F80100E7
:10328000200002F08DF87F1CDFE7FCF7B2FF012879
:1032900034D130683044083008F0D0F8401EDFF8F0
:1032A000D01B0860DFF8C00BDFF8C41B0968405C66
:1032B000DFF8BC1B0968884204D20020DFF8B01B8D
:1032C00008601BE0DFF8A40BDFF8941B096850F8D6
:1032D0002100DFF89C1B096850F82130DFF8900BC3
:1032E0000268521CDFF8741B200002F00DF8200069
:1032F00001F0C8FF0100200002F052F800208146D2
:1033000000F0E7BCFCF775FF012813D130683044AA
:10331000083008F093F88046B8F1090F06DA18F182
:10332000FF00C0B2DFF8401C086003E00120DFF8B6
:10333000381C086000F0CDBCFCF75BFF012813D1FE
:1033400030683044083008F079F88046B8F1040F4E
:1033500006DA18F1FF00C0B2DFF8101C086003E0C5
:103360000020DFF8081C086000F0B3BCFCF741FF48
:10337000012813D130683044083008F05FF88046E7
:10338000B8F1030F06DA18F1FF00C0B2DFF8E01B56
:10339000086003E00020DFF8D81B086000F099BC4B
:1033A000FCF727FF012818D130683044083007F0B7
:1033B000A6FE53EC102B0020DFF8B81B07F0ACFE84
:1033C0000DF0D6F8804642F21070804501DB642093
:1033D0008046DFF8A40BC0F8008000F07ABCFCF750
:1033E00008FF01280ED130683044083008F026F874
:1033F0008046B8F10B0F01DB03208046DFF87C0B21
:10340000C0F8008000F065BCFCF7F3FE01280ED187
:1034100030683044083008F011F88046B8F1100FD9
:1034200001DB01208046DFF8580B80F8008000F0B7
:1034300050BCFCF7DEFE012828D1DFF85C084068AC
:1034400001F020FF0200DFF8500841683068304486
:10345000083001F032FF002804D10120DFF8241BDE
:10346000087013E0DFF83008006801F00BFF02007D
:10347000DFF82408016830683044083001F01DFF8F
:10348000002803D10020DFF8FC1A087000F021BCEE
:10349000FCF7AFFE012828D1DFF8FC07406801F0F7
:1034A000F1FE0200DFF8F007416830683044083070
:1034B00001F003FF002804D10120DFF8741C08701C
:1034C00013E0DFF8D407006801F0DCFE0200DFF84B
:1034D000C807016830683044083001F0EEFE00286B
:1034E00003D10020DFF8481C0870F2E3FCF781FEEE
:1034F00001280ED130683044083007F09FFF804625
:10350000B8F5807F01DB00208046DFF8280C80F8CA
:103510000080DEE3FCF76DFE01281CD130683044EA
:10352000083007F08BFF8046B8F5803F01DB0020B4
:103530008046DFF8040CC0F80080DFF8FC0B406820
:10354000DFF8F41B0968884205D2DFF8EC0B00684D
:10355000DFF8E41B4860BCE3FCF74BFE01281CD1FC
:1035600030683044083007F069FF8046B8F5803F86
:1035700001DB00208046DFF8C00BC0F80480DFF8D4
:10358000B80B4068DFF8B01B0968884205D2DFF845
:10359000A80B4068DFF8A01B08609AE3FCF729FE3F
:1035A000012850D1DFF8F006406801F06BFE020000
:1035B000DFF8E406416830683044083001F07DFEF1
:1035C000002840D1002008F0B5FB002808D07FF08B
:1035D0000201401A2BD0401E1CD0401E0DD032E0FC
:1035E000DFF8581B200001F08FFE200001F04AFE9A
:1035F0000100200001F0D4FE25E0DFF8441B20008C
:1036000001F082FE200001F03DFE0100200001F0EB
:10361000C7FE18E0DFF82C1B200001F075FE20002B
:1036200001F030FE0100200001F0BAFE0BE0DFF8EF
:10363000181B200001F068FE200001F023FE0100AD
:10364000200001F0ADFE0020814642E3DFF8FC1AC5
:10365000200001F059FE200001F014FE01002000BE
:1036600001F09EFEFCF7B0FD002840F09A80306823
:10367000002840F096802868002800F0868000200E
:1036800007002868874280F08C8004AA05EBC700F9
:10369000D0E93E0106F035F9DFF8D007049950F87B
:1036A0002100059950F821000090DFF8AC0704993B
:1036B00050F821307A1CDFF8981A200001F024FE1F
:1036C000200001F0DFFD0100200001F069FE9DED0A
:1036D000090AB8EE400ADFED940A80EE200A10EEE7
:1036E000100A01F08DFECDE90201DFF8680A0899A1
:1036F00050F821000090DFF8600A079950F8213057
:10370000DFF8580A069950F82120DFF8541A2000F3
:1037100001F0FAFD200001F0B5FD0100200001F0EC
:103720003FFE0F9BDFF870050C9950F82120DFF861
:10373000341A200001F0E8FD200001F0A3FD010093
:10374000200001F02DFE0B9B0A9ADFF81C1A2000C6
:1037500001F0DAFD200001F095FD0100200001F0EC
:103760001FFE05EBC700836805EBC7004268DFF862
:10377000FC19200001F0C8FD200001F083FD0100CC
:10378000200001F00DFE7F1C7BE7DFF8E41920002C
:1037900001F0BAFD200001F075FD0100200001F0EC
:1037A000FFFD0020814694E2DFF8C819200001F0F7
:1037B000ABFD200001F066FD0100200001F0F0FDEE
:1037C000FCF702FD00282DD1306800282AD1286896
:1037D00000281AD01521280002F08DFB00200700D8
:1037E000286887424CD24F4850F827307A1CDFF8BF
:1037F0006C16200001F088FD200001F043FD01005F
:10380000200001F0CDFD7F1CEAE7DFF864192000FD
:1038100001F07AFD200001F035FD0100200001F0EB
:10382000BFFD2DE0FCF7E5FC012829D130683044CC
:10383000083007F003FEC6F814082868D6F81418F4
:10384000884203D20020C6F8140819E0D6F81408FC
:10385000401E09F095F93348D6F8141800EB8100A2
:1038600050F8043CD6F81428DFF8F015200001F0D9
:103870004BFD200001F006FD0100200001F090FD4D
:103880000020814625E2FCF7B4FC012867D1DFF86F
:103890000804406801F0F6FC0200DFF8FC03416810
:1038A00030683044083001F008FD002857D1D6F8C0
:1038B0001408002847D0D6F81408401E08F096F9DE
:1038C000002808D07FF00201401A2FD0401E1CD0E3
:1038D000401E0DD043E0DFF8AC1C200001F014FDC9
:1038E000200001F0CFFC0100200001F059FD36E07E
:1038F000DFF84C18200001F007FD200001F0C2FCA9
:103900000100200001F04CFD29E0DFF8381820000C
:1039100001F0FAFC200001F0B5FC0100200001F0EC
:103920003FFD1CE070DF022000007A44DFF8181829
:10393000200001F0E9FC200001F0A4FC01002000BF
:1039400001F02EFD0BE0DFF82818200001F0DCFC70
:10395000200001F097FC0100200001F021FD002073
:103960008146B6E1DFF8201C200001F0CDFC2000EC
:1039700001F088FC0100200001F012FDFCF724FC9E
:10398000002840F09A803068002840F0968028682F
:10399000002800F08580002007002868874280F01A
:1039A0005C8104AA05EBC700D0E93E0105F0A9FF40
:1039B000DFF8B804049950F82100059950F8210067
:1039C0000090DFF89404049950F821307A1CDFF855
:1039D0008017200001F098FC200001F053FC01004A
:1039E000200001F0DDFC9DED090AB8EE400ADFED94
:1039F000BB0A80EE200A10EE100A01F001FDCDE9AD
:103A00000201DFF85007089950F821000090DFF814
:103A10004807079950F82130DFF84007069950F819
:103A20002120DFF83C17200001F06EFC200001F09F
:103A300029FC0100200001F0B3FC0F9B96480C9973
:103A400050F82120DFF81C17200001F05DFC200059
:103A500001F018FC0100200001F0A2FC0B9B0A9A67
:103A6000DFF80417200001F04FFC200001F00AFCF1
:103A70000100200001F094FC05EBC700836805EB12
:103A8000C7004268DFF8E416200001F03DFC20008A
:103A900001F0F8FB0100200001F082FC7F1C7CE7B4
:103AA000DFF8CC16200001F02FFC200001F0EAFB2B
:103AB0000100200001F074FCCFE0FCF79AFB012824
:103AC00040F0CB8030683044083007F0B7FCC6F8CF
:103AD00014082868D6F81418884203D20020C6F8C3
:103AE0001408BAE004AAD6F8140805EBC000D0E91F
:103AF0003C0105F006FFDFF87403049950F821003B
:103B0000059950F821000090D348049950F82130CD
:103B1000D6F81428DFF83816200001F0F5FB200055
:103B200001F0B0FB0100200001F03AFC9DED090A14
:103B3000B8EE400ADFED690A80EE200A10EE100AA6
:103B400001F05EFCCDE90201DFF80806089950F8A3
:103B500021000090DFF80006079950F82130DFF8C7
:103B6000FC05069950F82120DFF8F415200001F03B
:103B7000CBFB200001F086FB0100200001F010FCCF
:103B80000F9B45480C9950F82120DFF8D8152000EC
:103B900001F0BAFB200001F075FB0100200001F0EC
:103BA000FFFB0B9B0A9ADFF8C015200001F0ACFB6D
:103BB000200001F067FB0100200001F0F1FBD6F8C6
:103BC000140855F83030D6F8140805EBC00050F84A
:103BD000042CDFF89815200001F096FB200001F07E
:103BE00051FB0100200001F0DBFB0021D6F8140896
:103BF000401E08F065F9002806D07FF00101401A48
:103C00001CD0401E0DD025E0DFF8741A200001F012
:103C10007BFB200001F036FB0100200001F0C0FB1F
:103C200018E0DFF81C15200001F06EFB200001F009
:103C300029FB0100200001F0B3FB0BE0DFF8441A80
:103C4000200001F061FB200001F01CFB01002000BE
:103C500001F0A6FB0020C6F814080020814638E0D9
:103C6000FCF7C7FA012832D10B48406801F00AFB83
:103C700002000948416830683044083001F01DFBFB
:103C8000002824D108F089FA002807D0B0F1FF3FBE
:103C900011D01CE044B10220BC000020DFF8E8197C
:103CA000200001F031FB200001F0ECFA01002000BF
:103CB00001F076FB0BE0DFF88814200001F024FB14
:103CC000200001F0DFFA0100200001F069FB002074
:103CD00081464846C0B214B0BDE8F08700007A447F
:103CE000AC250220389E022070B50400DFF8B05ADF
:103CF000DFF898692000012802D002282AD052E07B
:103D0000FCF777FA012824D1DFF88409406801F034
:103D1000B9FA0200DFF878094168306830440830A9
:103D200001F0CBFA002802D10120287511E0DFF85C
:103D30006009006801F0A6FA0200DFF85409016882
:103D400030683044083001F0B8FA002801D1012071
:103D5000287528E0FCF74DFA012824D1DFF8300956
:103D6000406801F08FFA0200DFF8240941683068EA
:103D70003044083001F0A1FA002802D10120687512
:103D800011E0DFF80C09006801F07CFA0200DFF8AE
:103D90000009016830683044083001F08EFA0028CC
:103DA00001D10120687570BD08E8050870B50400F0
:103DB000DFF8EC59DFF8D468FCF706FA002849D0A0
:103DC000012C04D046D3032C39D00CD342E0FCF7AD
:103DD00010FA012806D130683044083007F02EFB75
:103DE000C5F8400A36E0FCF704FA012826D1DFF8CE
:103DF000900C006801F046FA0200DFF8840C0168BC
:103E000030683044083001F058FA002803D100200F
:103E100085F8480A12E0DFF8680C406801F032FAD1
:103E20000200DFF85C0C416830683044083001F073
:103E300044FA002802D1012085F8480A0AE0FCF77C
:103E4000D8F9012806D130683044083007F0F6FA76
:103E5000C5F8440A70BD00000C0000205800060898
:103E600030F7022028E80508900306088C0000209F
:103E700034F702202DE9F8430700DFF8084CDFF89B
:103E80002059DFF80868FCF79FF9002801D10120CC
:103E900067E03800012802D0022836D060E0FCF745
:103EA000A8F9012830D1DFF8E00B406801F0EAF909
:103EB0000200DFF8D40B416830683044083001F06C
:103EC000FCF9002820D106200CF067FE80460DF09A
:103ED00060F8814619EB08094846C0B2002805D1B0
:103EE000DFF8A81B200001F00FFA04E0DFF8A01BA8
:103EF000200001F009FA200001F0C4F901002000BF
:103F000001F04EFA00202CE02AE0FCF772F90128BB
:103F100026D1DFF87C07406801F0B4F90200DFF831
:103F20007007416830683044083001F0C6F9002855
:103F300003D1012085F84D0A12E0DFF8540700682C
:103F400001F0A0F90200DFF848070168306830444A
:103F5000083001F0B2F9002802D1002085F84D0A9E
:103F60000120BDE8F2830000EC13002038F70220A6
:103F70003CF7022000408F40F0130020F413002093
:103F8000951600209616002070B50400DFF8105832
:103F9000DFF8F866FCF718F9002800F0C880012C5B
:103FA0000FD0C0F0C480032C37D036D3052C6FD08F
:103FB00042D3072C00F0848076D3082C00F0AC802C
:103FC000B5E0FCF716F9012826D1DFF8C80A006829
:103FD00001F058F90200DFF8BC0A0168306830448B
:103FE000083001F06AF9002803D1002085F8720A30
:103FF00012E0DFF8A00A406801F044F90200DFF89F
:10400000940A416830683044083001F056F90028BD
:1040100002D1012085F8720A89E0FCF7EAF801284C
:1040200009D130683044083007F008FA401E05EB2B
:10403000040181F86A0A7AE0FCF7DBF8012826D14E
:10404000DFF84C06406801F01DF90200DFF8400679
:10405000416830683044083001F02FF9002803D15E
:10406000012085F8500A12E0DFF82406006801F00C
:1040700009F90200DFF8180601683068304408309A
:1040800001F01BF9002802D1002085F8500A4EE00B
:10409000FCF7AFF8012806D130683044083007F04B
:1040A000CDF9C5F8540A42E0FCF7A3F8012806D17F
:1040B00030683044083007F0C1F9C5F8580A36E0D6
:1040C000FCF797F8012826D1DFF8C405406801F015
:1040D000D9F80200DFF8B80541683068304408308C
:1040E00001F0EBF8002803D1012085F85C0A12E00A
:1040F000DFF89C05006801F0C5F80200DFF89005C4
:10410000016830683044083001F0D7F8002802D147
:10411000002085F85C0A0AE0FCF76BF8012806D15C
:1041200030683044083007F089F9C5F8600A70BD7E
:104130007AF902207BF902209CF60220B80B0608CF
:10414000ACF1050818F70508FCE20508C8EA0508FF
:10415000DCF10508280100201C010020FC000020E3
:1041600048E8050820E305086CEC05087CF705081D
:104170006800060868E805082DE9F8432DED028B74
:104180000400DFF8F89BDFF8F88BDFF8F85BDFF866
:104190001066DFF8F874FCF717F8002800F0E981E2
:1041A0002000401E042814D9401F042840F28880B3
:1041B000401F032840F2CD80001F032840F23881C1
:1041C000001F012840F27C81801E012840F2AF814F
:1041D000CFE1FCF70EF8012871D106EB8400D0F88E
:1041E000780A002835D0DFF8A804406801F04AF8C2
:1041F0000200DFF89C04416838683844083001F058
:104200005CF800280FD106EB8400D0F8781A6420FF
:10421000414314F12B000DF0DAFA002006EB040103
:1042200081F8730A40E0DFF86804006801F02AF8BA
:104230000200DFF85C04016838683844083001F097
:104240003CF8002830D1002114F12B000DF0BFFA0A
:104250002AE0DFF83C04406801F014F80200DFF8BF
:104260003004416838683844083001F026F80028E6
:1042700005D1012006EB040181F8730A14E0DFF890
:104280001004006800F0FEFF0200DFF8040401687B
:1042900038683844083001F010F8002804D10020B4
:1042A00006EB040181F8730A012314F1FF00C0B288
:1042B00005EB000229004FF448500CF0ABFE58E12A
:1042C000FBF797FF012843D138683844083006F0DF
:1042D00016FF51EC100B0DF0A1FA08EE100A9FED3D
:1042E000A70AB4EE408AF1EE10FA03DB9FEDA40AB0
:1042F000B0EE408AB5EE408AF1EE10FA04DD0020FF
:1043000006EB040181F86E0AB2EE040A28EE000AF8
:10431000BCEEC00A06EB840000F6642080ED000AC3
:10432000042314F1FA00C0B205EB800010F108027A
:1043300029004FF448500CF06DFE012314F1FA00EF
:10434000C0B205EB000229004FF448500CF062FEA9
:104350000FE1FBF74EFF012869D106EB8400D0F88E
:10436000680A002831D0CA48406800F08BFF02007C
:10437000C748416838683844083000F09EFF00287C
:104380000FD106EB8400D0F8681A6420414314F181
:1043900026000DF01CFA002006EB040181F8850AC6
:1043A0003AE0BB48006800F06DFF0200B8480168C1
:1043B00038683844083000F080FF00282CD10021F4
:1043C00014F126000DF003FA26E0B148406800F031
:1043D00059FF0200AE48416838683844083000F0A0
:1043E0006CFF002805D1012006EB040181F8850A45
:1043F00012E0A748006800F045FF0200A4480168E9
:1044000038683844083000F058FF002804D10020F4
:1044100006EB040181F8850A012314F1F500C0B20E
:1044200008EB000241464FF450500CF0F3FDA0E0C1
:10443000FBF7DFFE012842D138683844083006F027
:104440005EFE51EC100B0DF0E9F908EE100A9FED3D
:104450004B0AB4EE408AF1EE10FA03DB9FED480AF6
:10446000B0EE408AB5EE408AF1EE10FA04DD00208D
:1044700006EB040181F8810AB2EE040A28EE000A74
:10448000BCEEC00A06EB840000F6582080ED000A5E
:10449000042314F1F100C0B208EB8000021D414674
:1044A0004FF450500CF0B6FD012314F1F100C0B2EE
:1044B00008EB000241464FF450500CF0ABFD58E0C1
:1044C000FBF797FE012831D17148406800F0DAFE11
:1044D00002006F48416838683844083000F0EDFE4B
:1044E000002805D1012006EB040181F8910A12E0B1
:1044F0006748006800F0C6FE020065480168386839
:104500003844083000F0D9FE002804D1002006EB22
:10451000040181F8910A012314F1ED00C0B209EB06
:10452000000249464FF458500CF074FD21E0FBF7AF
:1045300060FE01281DD138683844083006F0DFFDE0
:1045400053EC102B0020DFF8A41B06F0E5FD0CF067
:104550000FF806EB8401C1F8540A042314F1EB00B0
:10456000C0B209EB8000021D49464FF458500CF0D0
:1045700051FDBDEC028BBDE8F18300009BF979444D
:104580009AF97944A800060888EC050838B50400B3
:104590003E4DFBF719FE002870D0012C0AD06DD3D8
:1045A000032C21D013D3052C38D02AD3072C4FD07D
:1045B00041D363E0FBF71DFE012807D1286828449A
:1045C000083006F03BFFDFF8281B087056E0FBF7C9
:1045D00010FE012807D128682844083006F02EFF75
:1045E000DFF8101B087049E0FBF703FE012807D134
:1045F00028682844083006F021FFDFF8FC1A08700C
:104600003CE0FBF7F6FD012807D128682844083074
:1046100006F014FFDFF8DC1B08702FE0FBF7E9FD64
:10462000012807D128682844083006F007FFDFF882
:10463000C81B087022E0FBF7DCFD012807D12868C1
:104640002844083006F0FAFEDFF8B01B087015E0C9
:10465000FBF7CFFD012811D1DFF82C04406800F0F2
:1046600011FE0200DFF82004416828682844083061
:1046700000F023FE002801D10AF0C2FF31BD000086
:104680002CF7050840F70508F4F1050844B10220AD
:10469000B40000202DE9F0418046414CDFF8A05BDA
:1046A000DFF8A06B0127FBF78FFD002802D138004F
:1046B000C0B2E2E1B8F1010F30D0C0F0DC81B8F156
:1046C000030F6FD056D3B8F1050F00F0A380C0F0F0
:1046D0009580B8F1070F00F0B580C0F0A780B8F161
:1046E000090F00F0E780C0F0D980B8F10B0F00F09F
:1046F000F980C0F0EB80B8F10D0F00F04B81C0F0F5
:104700001D81B8F10F0F00F07D81C0F06F81B8F10D
:10471000110F00F09A81C0F08181ACE1FBF769FDD7
:10472000012826D1DFF8240B406800F0ABFD020021
:10473000DFF8180B416828682844083000F0BDFDF8
:10474000002803D1012084F8B00A12E0DFF8FC0A47
:10475000006800F097FD0200DFF8F00A01682868A1
:104760002844083000F0A9FD002802D1002084F878
:10477000B00A80E1FBF73DFD01280FD128682844ED
:10478000083006F0BCFC53EC102B0020DFF85C195D
:1047900006F0C2FC0BF0ECFEC4F8B40A6BE100BFFB
:1047A000189E0220FBF725FD012826D1DFF89C0A80
:1047B000406800F067FD0200DFF8900A4168286851
:1047C0002844083000F079FD002803D1012084F846
:1047D000B80A12E0DFF8740A006800F053FD020026
:1047E000DFF8680A016828682844083000F065FD91
:1047F000002802D1002084F8B80A3CE1FBF7F9FC5C
:10480000012806D128682844083006F017FE84F8ED
:10481000B90A30E1FBF7EDFC012806D128682844ED
:10482000083006F00BFE84F8BA0A24E1FBF7E1FC3D
:10483000012806D128682844083006F0FFFD84F8D6
:10484000BB0A18E1FBF7D5FC012826D1DFF8FC09EB
:10485000406800F017FD0200DFF8F00941682868A1
:104860002844083000F029FD002803D1012084F8F5
:10487000BC0A12E0DFF8D409006800F003FD020072
:10488000DFF8C809016828682844083000F015FDE1
:10489000002802D1002084F8BC0AECE0FBF7A9FC58
:1048A000012806D128682844083006F0C7FD84F89E
:1048B000BD0AE0E0FBF79DFC012806D128682844EA
:1048C000083006F0BBFD84F8BE0AD4E0FBF791FC8B
:1048D000012806D128682844083006F0AFFD84F886
:1048E000BF0AC8E0FBF785FC012826D1DFF85C0988
:1048F000406800F0C7FC0200DFF8500941682868F2
:104900002844083000F0D9FC002803D1012084F8A5
:10491000C30A12E0DFF83409006800F0B3FC0200BB
:10492000DFF82809016828682844083000F0C5FC31
:10493000002802D1002084F8C30A9CE0FBF759FC50
:10494000012826D1DFF80409406800F09BFC020032
:10495000DFF8F808416828682844083000F0ADFC0A
:10496000002803D1012084F8C40A12E0DFF8DC0833
:10497000006800F087FC0200DFF8D00801682868B2
:104980002844083000F099FC002802D1002084F867
:10499000C40A70E0FBF72DFC012826D1DFF8AC0833
:1049A000406800F06FFC0200DFF8A008416828684A
:1049B0002844083000F081FC002803D1012084F84D
:1049C000C00A12E0DFF88408006800F05BFC020017
:1049D000DFF87808016828682844083000F06DFC8A
:1049E000002802D1002084F8C00A44E0FBF701FC53
:1049F000012806D128682844083006F01FFD84F8F5
:104A0000C10A38E0FBF7F5FB012806D128682844E5
:104A1000083006F013FD84F8C20A2CE0FBF7E9FB2E
:104A200001280FD11848406800F02CFC02001648FD
:104A3000416828682844083000F03FFC002801D174
:104A4000142070810020070015E0FBF7D2FB01283D
:104A50000FD10D48406800F015FC02000A4841687B
:104A600028682844083000F028FC002801D11420D0
:104A7000B081002007003800C0B2BDE8F08100001E
:104A8000C4000020AC250220BC00002090F70508DF
:104A9000A4F70508DC0000202DE9F8430400DFF846
:104AA000B457DFF8B467DFF898775FF00108FBF7D9
:104AB0008BFB002802D14046C0B208E1012C0AD08D
:104AC000C0F00381032C6ED03AD3052C00F0D480C3
:104AD000C0F09A80F9E0FBF78CFB01282DD1DFF8BC
:104AE0007C07406800F0CEFB0200DFF870074168E9
:104AF00038683844083000F0E0FB00281DD14FF43E
:104B00008842FF214FF434500CF0A2F9002806D05F
:104B10004FF48842FF214FF434500CF099F90CF017
:104B2000ADFADFF83C17280000F0EEFB280000F09B
:104B3000A9FB0100280000F033FC00208046C4E0FF
:104B4000FBF757FB01282BD1DFF81007406800F076
:104B500099FB0200DFF804074168386838440830E0
:104B600000F0ABFB00281BD14FF40052FF210020C6
:104B70000CF06EF9002805D04FF40052FF21002000
:104B80000CF066F90CF0B1FDDFF8D816280000F043
:104B9000BBFB280000F076FB0100280000F000FCC1
:104BA0000020804691E0FBF724FB012829D1DFF8A3
:104BB000AC06406800F066FB0200DFF8A006416822
:104BC00038683844083000F078FB002813D10620FC
:104BD0000BF0E3FF002802D006200BF0DEFFDFF829
:104BE0008816280000F090FB280000F04BFB010025
:104BF000280000F0D5FB0CF0CCF9002801D00CF017
:104C0000C8F90020804660E0FBF7F3FA012832D1B2
:104C100038683844083006F011FC40F2D24188422E
:104C200029D14FF48842FF214FF434500CF010F991
:104C3000002806D04FF48842FF214FF434500CF086
:104C400007F94FF40052FF2100200CF001F9002871
:104C500005D04FF40052FF2100200CF0F9F8062097
:104C60000BF09BFF002802D006200BF096FF0020DF
:104C70000DF0C5FFFEE728E0FBF7BBFA012824D1C1
:104C800038683844007A06F0D9FB8146B9F1010949
:104C90004022402000FB09F0304410F549714FF4E8
:104CA000FE400EF0C7FA00280AD04022402000FB48
:104CB00009F0304410F549714FF4FE400EF0BAFA95
:104CC00040F6FF700DF09BFFFEE74046C0B2BDE826
:104CD000F28370B50400DFF868550126FBF774FA1B
:104CE000002802D13000C0B246E02000012802D0E6
:104CF00002282CD03EE0FBF77CFA012826D1DFF811
:104D00004C05406800F0BEFA0200DFF8400541683B
:104D100028682844083000F0D0FA002803D1012088
:104D200085F81C0812E0DFF82405006800F0AAFAF4
:104D30000200DFF81805016828682844083000F0F0
:104D4000BCFA002802D1002085F81C0812E0FBF70D
:104D500050FA01280ED128682844083006F06EFB6E
:104D6000C5F82008D5F82008B0F57A7F02D30320D3
:104D7000C5F820083000C0B270BD0000BCA80220F9
:104D8000A8A802208CA8022070B5DFF8B444012541
:104D9000012694F90808002806D1FBF745FA0128F6
:104DA00002D1FBF760FA38E194F90808002803D033
:104DB00094F9090800281FD1002061682144087275
:104DC00094F9080800280BD114F1080006F036FB0E
:104DD000DFF8981408700020DFF8941408701AE0C7
:104DE00094F90908002816D114F1080006F026FBF2
:104DF000DFF87C1408700EE0FBF7E6F9012803D118
:104E0000002021682144087214F1080006F016FB06
:104E1000DFF860140860207A002800F0838094F99D
:104E20000808002814D0012819D002281DD0032812
:104E300042D0042846D005284BD006284FD007285A
:104E400053D0082857D009285CD00B2861D067E0E0
:104E5000DFF8180490F9000084F8080862E0DFF831
:104E600010040078FDF71AF85CE094F90908401E78
:104E7000032806D9001F0BD0401E10D0401E15D0AD
:104E800019E0DFF8F0030068FDF7FCF8060012E017
:104E9000DFF8E0030068FEF753F806000BE0DFF8E8
:104EA000D4030068FEF7EEF8060004E0DFF8C40360
:104EB0000068FEF719FF35E0DFF8B4030078FEF76D
:104EC00075FF2FE0DFF8A8030078FEF7D3FF060098
:104ED00028E0DFF89C030078FFF756F822E0DFF8BF
:104EE00090030078FFF748F91CE0DFF884030078AE
:104EF000FFF74CFB16E0DFF878030078FFF7CAFBFA
:104F000006000FE0DFF868030078FFF7C5FD060034
:104F100008E0DFF85C030078FFF7DBFE060001E045
:104F2000002006003000C0B201286ED1002006002B
:104F300094F90808012810D067D3032839D011D379
:104F4000052840D03AD3072847D041D309284ED06E
:104F500048D30B2855D04FD357E0C4480078FBF70F
:104F600084FA52E0C2480078002809D0401E032885
:104F70000BD9001F0ED0401E11D0401E14D017E0D8
:104F8000BA480078FBF7D8FA12E0B9480078FBF786
:104F90003CFB0DE0B6480078FBF78DFD08E0B44817
:104FA0000078FBF7E1FD03E0B1480078FCF782F8F8
:104FB0002BE0AE480078FCF7C1F826E0AB4800785B
:104FC000FCF70EF921E0A9480078FCF759F91CE03C
:104FD000A6480078FCF752FA17E0A4480078FCF7DE
:104FE00083FC12E0A1480078FCF71EFD0DE09F480D
:104FF0000078FCF749FE08E09C480078FCF7C4FE06
:1050000003E09A480078FCF709FF2800C0B20028A6
:1050100003D00121002000F040F870BD88494A68A3
:1050200040F2FF739A4211DA0200D2B2612A04DB25
:105030000200D2B27B2A00DA20384A68531C4B6047
:105040000A4410724A68521D81F80A28704738B520
:105050007B4C804D94F90A08062805DA20227AA1B3
:10506000280000F051F910E06068401E6060606840
:10507000401D84F80A080020616821440872082352
:1050800020227D49280000F03FF9280000F0FAF8BE
:105090000100280000F084F931BDF8B584B00400A7
:1050A0000D00674E102100226F4638000BF0D8F932
:1050B000012D11DB2000C0B2002802D1052086F8A6
:1050C0000A086E482100C9B250F8212060A1684644
:1050D00000F01AF96D1EEBE7684600F0D3F8010006
:1050E000684600F05DF905B0F0BD00000000244006
:1050F00074F9022075F9022076F902202DE9F84FA3
:1051000004004F4D4E4E4F4F5FF000082000C0B2DC
:10511000082861D00D2804D051280FD071280DD057
:105120005DE0FFF731FE40F608095FF0000AB34684
:105130005246494658460BF093F958E0002085F84E
:105140001C0895F90808022806D00020FBF7FCF897
:10515000002085F8090836E095F90908002803D0F1
:10516000401E062807D92EE0002085F808080020F8
:10517000FBF7EAF827E0B7F90000002817D1B7F9E4
:105180000800002813D15FF010095FF0000A05F64F
:105190000C0B5246494658460BF062F9002085F840
:1051A00009080220FBF7C8F9012080460BE0002027
:1051B0003880B7F90800002801D08120388101210A
:1051C0000120FFF76AFF4046C0B2002803D001214A
:1051D0000020FFF762FF0AE0FFF739FF07E0200039
:1051E000C0B2202803DB2000C0B2FFF717FFBDE8E4
:1051F000F18F000077F9022078F9022079F9022076
:1052000080B50FF051FE01BD2DE9F0471C4C0C4D4F
:105210000320C5F8200814260027A0463A003100D4
:1052200040460BF01DF95FF010085FF0000905F62D
:105230000C0A4A46414650460BF012F9BDE8F08789
:1052400044B102201ED9012025630000B4000020D3
:1052500025730000AC25022054380120BC0000203A
:10526000B8F70508B8000608A4EC050882F9022082
:1052700083F90220F0F70220E41206088C140020C3
:10528000F0A8022000F10103810704D010F8011BEF
:10529000820781B1FAD10268A2F10131914311F084
:1052A000803104BF50F8042FF6E709BAB1FA81F152
:1052B00000EBD100401CC01A704704E010F8013B1D
:1052C0006BB1491C521E52B10B7890F800C09C453E
:1052D000F4D002D24FF0FF30704701207047002019
:1052E0007047B1F5807F02D34FF0FF3070470170F7
:1052F000012070470A780260087800E00078401EBC
:105300008041C043C00F70470CB430B583B00A462B
:1053100006A90291044600250194009502AB01A95B
:10532000084878441E300FF0D1FD019A157000280E
:105330004EBF04460198041B204603B030BC5DF804
:105340000CFB00BF2B44000038B5204C200010F0AF
:1053500027FE00280BD0200010F02BFE05002800AF
:10536000C0B2002803D02800C0B2FFF7C7FE31BD8D
:1053700010B5174C60682168884210D00121206860
:105380002044083010F024FE002808D12068401C7A
:1053900020602068B0F5006F01DB0020206010BDA8
:1053A00030B40B4A00238B420EDAC45C55681544B6
:1053B0002C725468641C54605468B4F5006F01DBAF
:1053C000002454605B1CEEE730BC704768B90220D3
:1053D0009815022080B5FFF7B7FFFFF7C9FF01BDA1
:1053E000704703681AB95A1E026008467047197858
:1053F00011B94FF0FF307047591C016018787047A1
:10540000C0F3C75181B1FF2906D0C110400721F078
:10541000E04101F16051704741020CBF40F4E001EE
:105420006FF000410020704700F0004100020AD0F8
:10543000B0FA80FC00FA0CF001F16051A1EB0C51C4
:1054400001EBD021400570472DE9F041DFF8AC5B5E
:10545000DFF8AC6B00275FF00008B6F90000002809
:1054600024D0143823D00B3824D0093829D0401E3A
:105470002BD0401E36D0401E40D0C01F45D00A3829
:1054800063D00A3870D0401E00F08E80401E00F0BD
:10549000BD80B13800F0D180293800F0D480401EA2
:1054A00000F0D480801E00F0D480D4E0D3E01F2030
:1054B0003080D0E00020DFF84C1B088028203080AE
:1054C000C9E03088401C3080C5E00021022011F086
:1054D00055F8002802D1F920308002E03088401CC5
:1054E0003080B8E0002041F21401685041F214000D
:1054F0002858E8603088401C3080ACE0DFF8080BAA
:1055000005F02DFC32203080A5E0DFF8FC0A05F024
:1055100047FC80464046C0B2042805D1DFF8E80ABF
:1055200005F02BFC804606E04046C0B2002802D1C0
:1055300005F042FC80464046C0B2002802D0F92067
:10554000308001E03C20308085E0DFF8BC0A05F0C7
:1055500027FC80464046C0B2002802D14620308059
:1055600001E0F920308076E04FF4805215F114010B
:10557000DFF8900A00880DF0B5FE002811D14FF435
:10558000805115F1140005F035FC80464046C0B24C
:10559000002802D0F920308005E03088401C30809F
:1055A00001E0F920308056E04FF4805141F21400C0
:1055B000284405F007FC80464046C0B2002802D0CF
:1055C000F920308021E000200400B4F5805F0BDA80
:1055D00005EB0400007D05EB040141F21C02895C2F
:1055E000884201D1641CF0E7B4F5805F02DAF9204B
:1055F00030800AE0DFF80C0A008810F58050DFF8F0
:10560000041A08803088401C308024E0DFF8F40958
:105610000088B0F5004F0DDB05F0CEFB804640461C
:10562000C0B2002802D0F920308005E040F22310FB
:10563000308001E0462030800DE005F0BDFB4FF4E6
:105640009170308007E00020308004E0F920308045
:1056500001E0F92030803800C0B2BDE8F08170B5BB
:10566000DFF8B049DFF8B05900262B200CF0B3F872
:10567000002802D03000C0B234E0B5F900000028A4
:105680000DD014280CD01F280DD0282815D0322872
:105690001DD0F9281ED0B0F5917F1FD020E01FE06B
:1056A0001F2028801CE061694FF47A7041432B2051
:1056B0000CF08DF82820288012E001224FF4806140
:1056C000DFF8A00B11F00CFA3220288008E0F92056
:1056D000288005E04FF49170288001E000202880A8
:1056E0003000C0B270BD00210F2909DADFF87C2B31
:1056F00002EB41021432100000220280491CF3E741
:10570000704710B4DFF8682BDFF8683B002143F2E4
:10571000BA14115500211970002143F2BB14115520
:1057200000210B2909DADFF8444B04EB410446342D
:10573000200000240480491CF3E710BC70472DE9C9
:10574000F04F91B004000D00160040275FF00008F4
:105750000DF104094246390048460AF081FE200056
:10576000FFF790FD8146A2460DF1040B4A465146D3
:1057700058460AF0A9FE2800C0B2002800D06D1ECD
:1057800001A8FFF77FFD0700D7F1190801A80090D5
:1057900040F21F53320092B22900C9B23220414375
:1057A000553189B2172011F021FDC1465FF0200A62
:1057B0000DF1040B5246494658460AF051FE0020AE
:1057C00001A901F8080001A8009040F21F5332001F
:1057D00092B22900C9B232204143553189B20C201E
:1057E00000FB07F0173080B211F000FD11B0BDE8EA
:1057F000F08F2DE9F04F91B004000D001600402706
:105800005FF000080DF104094246390048460AF0ED
:1058100027FE2000FFF736FD8146A2460DF1040B5E
:105820004A46514658460AF04FFE2800C0B20028AA
:1058300000D06D1E01A8FFF725FD0700D7F1230852
:1058400001A8009040F21F53320092B22900C9B261
:1058500032204143553189B240F2611011F0C6FC4B
:10586000C1465FF0200A0DF1040B524649465846E6
:105870000AF0F6FD002001A901F8080001A8009037
:1058800040F21F53320092B22900C9B23220414384
:10589000553189B20C2000FB07F000F2611080B294
:1058A00011F0A4FC11B0BDE8F08F2DE9F04F91B0DC
:1058B00004000D00160040275FF000080DF10409F8
:1058C0004246390048460AF0CBFD2000FFF7DAFCDB
:1058D0008146A2460DF1040B4A46514658460AF04D
:1058E000F3FD2800C0B2002800D06D1E01A8009072
:1058F00040F21F53320092B22900C9B23220414314
:10590000553189B240F23D2011F070FC11B0BDE874
:10591000F08F0EB42DE9F84190B00400279D289E29
:1059200000275FF00008A84532D26A4604EBC800A1
:10593000D0E9020103F0E5FF00981799884224D1CD
:1059400001981899884220D10298199988421CD14F
:1059500003981A99884218D104981B99884214D147
:1059600005981C99884210D10A2223A90B2000FB1C
:1059700008F0204410F54A70FFF79FFC002804D17E
:10598000C6F800800120070002E018F10108CAE70C
:105990003800C0B211B0BDE8F0015DF810FB2DE990
:1059A000F84FA0B0040092469B462A9D2B9EDDF83E
:1059B000B09000276A465046594603F0A2FF5FF0B8
:1059C0000008B0453ED210AA04EBC800D0E93E0161
:1059D00003F097FF10980099884230D111980199EF
:1059E00088422CD112980299884228D113980399A1
:1059F000884224D114980499884220D11598059999
:105A000088421CD116980699884218D1189808998E
:105A1000884214D11B980B99884210D104EBC8001E
:105A20004068296888420AD104EBC8008068696828
:105A3000884204D101200700C9F8008002E018F173
:105A40000108BEE73800C0B221B0BDE8F08F2DE9F3
:105A5000F24FACB004002C98002801D10020F9E1ED
:105A60002C98012801D10120F4E100200290029835
:105A70002C99491E884280F0E380002006002C9972
:105A8000491E0298091A8E4280F0D68019AA04EBAA
:105A9000C600D0E9020103F034FF09AA04EBC600F6
:105AA000D0E9040103F02DFF0020050009981999A1
:105AB000884202D2012005005DE0199809998842C8
:105AC00006D30A981A99884202D20120050052E0B2
:105AD0001998099988420AD31A980A99884206D3D4
